:100000000C945D000C9485000C9485000C94850084
:100010000C9485000C9485000C9485000C9485004C
:100020000C9485000C9485000C9485000C9485003C
:100030000C9485000C9485000C9485000C9485002C
:100040000C94B7050C9485000C9427060C940106BB
:100050000C9485000C9485000C9485000C9485000C
:100060000C9485000C9485000000000024002700FB
:100070002A0000000000250028002B0004040404CE
:100080000404040402020202020203030303030342
:10009000010204081020408001020408102001021F
:1000A00004081020000000080002010000030407FB
:1000B00000000000000000004F0811241FBECFEF19
:1000C000D8E0DEBFCDBF11E0A0E0B1E0E6ECF6E1A4
:1000D00002C005900D92A436B107D9F723E0A4E63B
:1000E000B1E001C01D92A632B207E1F710E0CDE504
:1000F000D0E004C02197FE010E94BD08CC35D10795
:10010000C9F70E9459060C94610B0C940000EDEAAB
:10011000F0E02491E9E9F0E09491E5E8F0E0E49181
:10012000EE2309F43BC0222339F1233091F038F457
:100130002130A9F0223001F524B52F7D12C02730DF
:1001400091F02830A1F02430B9F4209180002F7D67
:1001500003C0209180002F77209380000DC024B52C
:100160002F7724BD09C02091B0002F7703C02091C4
:10017000B0002F7D2093B000F0E0EE0FFF1FEE588F
:10018000FF4FA591B4912FB7F894EC91811103C062
:1001900090959E2301C09E2B9C932FBF08958E3077
:1001A00008F08E508770806480937C0080917A0084
:1001B000806480937A0080917A0086FDFCCF8091E4
:1001C00078002091790090E0922B08953FB7F89441
:1001D0008091850290918602A0918702B091880259
:1001E00026B5A89B05C02F3F19F00196A11DB11D92
:1001F0003FBFBA2FA92F982F8827820F911DA11DCD
:10020000B11DBC01CD0142E0660F771F881F991F09
:100210004A95D1F708958F929F92AF92BF92CF9255
:10022000DF92EF92FF926B017C010E94E6004B018E
:100230005C01C114D104E104F104F1F00E94E60074
:10024000DC01CB0188199909AA09BB09883E9340B2
:10025000A105B10570F321E0C21AD108E108F10847
:1002600088EE880E83E0981EA11CB11CC114D10435
:10027000E104F10419F7DDCFFF90EF90DF90CF900C
:10028000BF90AF909F908F9008952FB7F894609192
:1002900081027091820280918302909184022FBF2B
:1002A0000895CF92DF92EF92FF920F931F93CF9317
:1002B000DF936C017A018B01C0E0D0E0CE15DF0541
:1002C00089F0D8016D918D01D601ED91FC910190DD
:1002D000F081E02DC6010995892B11F47E0102C041
:1002E0002196ECCFC701DF91CF911F910F91FF9025
:1002F000EF90DF90CF900895FC01918D828D98173B
:1003000061F0828DDF01A80FB11D5D968C91928DF9
:100310009F5F9F73928F90E008958FEF9FEF0895F6
:10032000FC01918D828D981731F0828DE80FF11DBF
:10033000858D90E008958FEF9FEF0895FC01918DDA
:10034000228D892F90E0805C9F4F821B91098F73D3
:100350009927089589E892E00E949E0121E0892B67
:1003600009F420E0822F0895FC01848DDF01A80F9D
:10037000B11DA35ABF4F2C91848D90E001968F73CD
:100380009927848FA689B7892C93A089B1898C91EC
:1003900080648C93938D848D981306C00288F389B2
:1003A000E02D80818F7D80830895EF92FF920F93DF
:1003B0001F93CF93DF93EC0181E0888F9B8D8C8D11
:1003C000981305C0E889F989808185FD24C0F62E3F
:1003D0000B8D10E00F5F1F4F0F731127E02E8C8DD8
:1003E000E8120CC00FB607FCFACFE889F9898081C2
:1003F00085FFF5CFCE010E94B401F1CF8B8DFE01B8
:10040000E80FF11DE35AFF4FF0820B8FEA89FB8959
:100410008081806207C0EE89FF896083E889F9895D
:1004200080818064808381E090E0DF91CF911F9193
:100430000F91FF90EF900895CF93DF93EC01888D9B
:100440008823C9F0EA89FB89808185FD05C0A889D8
:10045000B9898C9186FD0FC00FB607FCF5CF80815E
:1004600085FFF2CFA889B9898C9185FFEDCFCE01A8
:100470000E94B401E7CFDF91CF91089580E090E032
:10048000892B29F00E94AA0181110C940000089583
:10049000009769F0FC0101900020E9F73197AF0166
:1004A000481B590BBC0189E892E00C94510180E093
:1004B00090E008958F929F92AF92BF92CF92DF9279
:1004C000EF92FF920F931F93CF93DF93CDB7DEB7D9
:1004D000A1970FB6F894DEBF0FBECDBF6C01990F88
:1004E000EE08FF08F7FE31C0E0918902F0918A0220
:1004F0000190F081E02D6DE289E892E009958C0190
:1005000022273327A9012C193D094E095F0919A299
:10051000CE0181967C019AE0892E912CA12CB12CE0
:10052000CA01B901A50194010E947C08605DF70130
:1005300062937F01211531054105510589F7CF01EE
:100540000E944802800F911F1DC0A701960119A2A9
:100550008E010F5D1F4F8AE0C82ED12CE12CF12CAB
:10056000CA01B901A70196010E947C08605DF801EB
:1005700062938F01211531054105510589F7CF019E
:100580000E944802A1960FB6F894DEBF0FBECDBF01
:10059000DF91CF911F910F91FF90EF90DF90CF905F
:1005A000BF90AF909F908F9008952F923F924F925F
:1005B0005F926F927F928F929F92AF92BF92CF92F3
:1005C000DF92EF92FF920F931F93CF93DF93CDB7FC
:1005D000DEB7A2970FB6F894DEBF0FBECDBF9AA3C9
:1005E00089A38EE480937C0062E070E080E090E07C
:1005F0000E940B0180917A00806480937A00809140
:100600007A0086FDFCCF809178002091790030E05F
:10061000322F2227A901330F660B770B9A01AB010A
:10062000282B60E070E381E190E00E949E082D8B12
:100630003E8B4F8B588F0E9445014B015C0169A096
:100640007AA028E5620E711CA9A1BAA154968C91DA
:100650000E94CF00F30191838083BC01990F880B26
:10066000990B0E94DF096B017C012DEC3CEC4CE006
:1006700054E40E94300987FF0BC011E026E636E6FD
:1006800046EE53E4C701B6010E948F0A18160CF01B
:1006900010E00E944501DC01CB0188199909AA09E3
:1006A000BB09813D9740A105B10510F4112361F20A
:1006B0000E944501698B7A8B8B8B9C8B00E010E04C
:1006C0001A82198229A13AA1205C3F4F3A8F298FC3
:1006D00049A15AA14C5B5F4F5C874B8789A19AA1C6
:1006E000885B9F4F9C8F8B8FA9A1BAA1A45BBF4F42
:1006F000BE87AD87E9A1FAA1E05BFF4FFE8FED8FCA
:1007000029A13AA12C5A3F4F388B2F8749A15AA1D2
:10071000465A5F4F5E834D8329A03AA05BE5250EC4
:10072000311C89A19AA1885A9F4F98A38F8F0E944C
:100730004501DC01CB0129893A894B895C89821BFF
:10074000930BA40BB50B803D9740A105B10508F4B0
:10075000DAC04D895E89BA01550F880B990B0E944A
:10076000DF0920E030E04AE754E40E94350920E048
:1007700030E040E85AE30E94940A2B013C01A9A111
:10078000BAA158962D913D914D915C915B970E9435
:10079000940A4B015C01E981FA81BF0180E090E09D
:1007A0000E94DD096B017C0129A03AA0F4E42F0E20
:1007B000311C9B01AC01D1016D917D918D919C917A
:1007C0000E9435090E94070B9B01AC01C501B401D1
:1007D0000E94940A69837A838B839C83E9A1FAA19E
:1007E0006487758786879787248D358D468D578DCD
:1007F000C301B2010E94940A2B013C0109A11AA174
:10080000045B1F4FA7019601D8016D917D918D91D9
:100810009C910E9435090E94070B9B01AC01C3010A
:10082000B2010E94940A6D837E838F839887E9A129
:10083000FAA1608B718B828B938BA3019201C5010E
:10084000B4010E94940AA9A0BAA0F4E5AF0EB11CAD
:10085000D5012D913D914D915C910E94940AA70183
:1008600096010E9435096B017C01E9A1FAA1608320
:100870007183828393832D813E814F815885698165
:100880007A818B819C810E94940A9B01AC01A9A171
:10089000BAA114966D937D938D939C931797C7017E
:1008A000B6010E943509E9A1FAA1608771878287A4
:1008B0009387D1011D921D921D921C921397F801EE
:1008C0001082118212821382D5011D921D921D92F7
:1008D0001C921397A2960FB6F894DEBF0FBECDBF41
:1008E000DF91CF911F910F91FF90EF90DF90CF900C
:1008F000BF90AF909F908F907F906F905F904F9040
:100900003F902F900895E981FA813196FA83E98327
:10091000E9A1FAA184A595A5A6A5B7A580A791A749
:10092000A2A7B3A784890E94CF00A9A1BAA19596D6
:100930009C938E93949756968C910E94CF003C0185
:10094000E9A1FAA197A386A324A135A13A87298713
:10095000B901330F880B990B0E94DF096B017C01F1
:10096000A9A1BAA1D4968D909D90AD90BC90D79737
:10097000A50194010E94C30820E030E040E85AE35A
:100980000E94940A9B01AC01C501B4010E94C408F5
:100990009B01AC01E9A1FAA164AB75AB86AB97AB47
:1009A000C701B6010E94C3084B015C01A9A1BAA10D
:1009B0009C966D937D938D939C939F97B301770C39
:1009C000880B990B0E94DF096B017C01E9A1FAA158
:1009D00040AC51AC62AC73ACA30192010E94C3085D
:1009E00020E030E040E85AE30E94940A9B01AC0109
:1009F000C301B2010E94C4089B01AC01A9A1BAA124
:100A0000D8966D937D938D939C93DB97C701B60128
:100A10000E94C3086B017C01E9A1FAA160AB71AB34
:100A200082AB93ABA5019401C501B4010E94940A65
:100A30009B01AC01A98DBA8D6D937D938D939C9391
:100A40001397EB85FC8560817181828193810E947F
:100A5000C408AB85BC856D937D938D939C93139750
:100A6000A7019601C701B6010E94940A9B01AC013F
:100A7000EB8DFC8D6083718382839383AD85BE850E
:100A80006D917D918D919C910E94C408ED85FE85AC
:100A90006083718382839383A9A1BAA198964D90B4
:100AA0005D906D907C909B97A3019201C501B4016C
:100AB0000E94C308E9A1FAA120A131A142A153A13A
:100AC0000E94940A9B01AC01C301B2010E94C408B8
:100AD000A9A1BAA1DC966D937D938D939C93DF972A
:100AE000A70196010E94940A9B01AC01ED8DFE8D39
:100AF0006083718382839383AF85B8896D917D9183
:100B00008D919C910E94C408EF85F8896083718360
:100B100082839383D1018C91ED81FE818083AF8D9F
:100B2000B8A18D919C91E985FA858E179F0724F4D1
:100B3000E1E0D101EC9302C0D1011C92E981FA817C
:100B4000319729F4D1018C91ED81FE818083AD81B3
:100B5000BE819C91F1018081981711F00F5F1F4FAA
:100B60000431110508F0F5CDE2CD0E945C0B1F9217
:100B70000F920FB60F9211242F933F938F939F9351
:100B8000AF93BF938091810290918202A0918302E2
:100B9000B09184023091800223E0230F2D3720F49E
:100BA0000196A11DB11D05C026E8230F0296A11DC7
:100BB000B11D209380028093810290938202A093C2
:100BC0008302B09384028091850290918602A09165
:100BD0008702B09188020196A11DB11D8093850204
:100BE00090938602A0938702B0938802BF91AF9141
:100BF0009F918F913F912F910F900FBE0F901F905B
:100C000018951F920F920FB60F9211242F933F93B6
:100C10004F935F936F937F938F939F93AF93BF9304
:100C2000EF93FF9389E892E00E94B401FF91EF9166
:100C3000BF91AF919F918F917F916F915F914F91F4
:100C40003F912F910F900FBE0F901F9018951F92FC
:100C50000F920FB60F9211242F938F939F93EF93C0
:100C6000FF93E0919902F0919A028081E0919F02B6
:100C7000F091A00282FD12C090818091A2028F5F4C
:100C80008F732091A302821751F0E091A202F0E04D
:100C9000E757FD4F958F8093A20201C08081FF919D
:100CA000EF919F918F912F910F900FBE0F901F90FA
:100CB0001895789484B5826084BD84B5816084BDC4
:100CC00085B5826085BD85B5816085BD80916E00EA
:100CD000816080936E00109281008091810082601B
:100CE0008093810080918100816080938100809158
:100CF00080008160809380008091B1008460809347
:100D0000B1008091B00081608093B00080917A0042
:100D1000846080937A0080917A00826080937A0068
:100D200080917A00816080937A0080917A00806857
:100D300080937A001092C100E0919902F0919A029A
:100D400082E08083E0919502F09196021082E0911A
:100D50009702F091980280E180831092A102E091C5
:100D60009D02F0919E0286E08083E0919B02F091CB
:100D70009C02808180618083E0919B02F0919C02C3
:100D8000808188608083E0919B02F0919C02808149
:100D900080688083E0919B02F0919C0280818F7D2E
:100DA000808380E191E00E94480283E391E00E9409
:100DB000480286E391E00E94480283E391E00E94AA
:100DC0004802E2E0F0E0F0933902E09338028AE969
:100DD00099E9ABE7B3E480933C0290933D02A09382
:100DE0003E02B0933F020AE919E929ED3FE300937F
:100DF000440210934502209346023093470280E05C
:100E000090E0A0E0B4E48093580290935902A0933C
:100E10005A02B0935B0243E050E050933B02409390
:100E20003A0243E353E36EED72E440934002509381
:100E30004102609342027093430280935C0290935C
:100E40005D02A0935E02B0935F02F093D501E09340
:100E5000D4010F2EFFE8CF2EF2E4DF2EFAE6EF2EBC
:100E6000F3E4FF2EF02DC092D801D092D901E09288
:100E7000DA01F092DB010093E0011093E10120938D
:100E8000E2013093E3018093F4019093F501A09384
:100E9000F601B093F7011092D7011092D60140935A
:100EA000DC015093DD016093DE017093DF018093DC
:100EB000F8019093F901A093FA01B093FB01F0932C
:100EC0007901E0937801C0927C01D0927D01E0929B
:100ED0007E01F0927F01009384011093850120939D
:100EE0008601309387018093980190939901A09394
:100EF0009A01B0939B0121E030E030937B01209375
:100F00007A01409380015093810160938201709334
:100F1000830180939C0190939D01A0939E01B093C7
:100F20009F01E9E9F0E02491E5E8F0E0849188236D
:100F300099F090E0880F991FFC01E859FF4FA591A7
:100F4000B491FC01EE58FF4F859194918FB7F894BE
:100F5000EC91E22BEC938FBF81E00E94870064EF5D
:100F600071E080E090E00E940B0184E292E00E9438
:100F7000D502609124027091250280912602909101
:100F800027020E94A70970931D0260931C0220E0B3
:100F900030E048EC52E4609130027091310280916F
:100FA0003202909133020E94940A0E94A709709322
:100FB00023026093220280EC91E00E94D5026091AE
:100FC000C0017091C1018091C2019091C3010E9442
:100FD000A70970931F0260931E0284E691E00E94AD
:100FE000D5026091640170916501809166019091D4
:100FF00067010E94A70970932102609320028CE48C
:1010000091E00E94480280911C0290911D020E9472
:101010005A0281E591E00E94480280911E0290915F
:101020001F020E945A0287E591E00E9448028091C7
:101030002002909121020E945A028DE591E00E94C7
:1010400048026091220270912302072E000C880B47
:10105000990B0E94DF092AE037ED43E25CE30E942E
:10106000940A0E94A709CB010E945A0283E391E0EF
:101070000E94480281E00E94870064E670E080E000
:1010800090E00E940B0180E00E94870060ED77E015
:1010900080E090E00E940B010E943E0266CFE9E8EA
:1010A000F2E01382128288EE93E0A0E0B0E0848345
:1010B0009583A683B78384E091E09183808385EC58
:1010C00090E09587848784EC90E09787868780EC12
:1010D00090E0918B808B81EC90E0938B828B82EC03
:1010E00090E0958B848B86EC90E0978B868B118EAD
:1010F000128E138E148E0895A1E21A2EAA1BBB1B0A
:10110000FD010DC0AA1FBB1FEE1FFF1FA217B307D3
:10111000E407F50720F0A21BB30BE40BF50B661FE9
:10112000771F881F991F1A9469F7609570958095AD
:1011300090959B01AC01BD01CF010895052E97FB51
:101140001EF400940E94B50857FD07D00E947C0849
:1011500007FC03D04EF40C94B5085095409530959B
:1011600021953F4F4F4F5F4F089590958095709513
:1011700061957F4F8F4F9F4F0895EE0FFF1F059092
:10118000F491E02D09945058BB27AA270E94DB0850
:101190000C94550A0E94470A38F00E944E0A20F02B
:1011A00039F49F3F19F426F40C94440A0EF4E095A8
:1011B000E7FB0C943E0AE92F0E94660A58F3BA171F
:1011C000620773078407950720F079F4A6F50C945D
:1011D000880A0EF4E0950B2EBA2FA02D0B01B90151
:1011E00090010C01CA01A0011124FF27591B99F09D
:1011F000593F50F4503E68F11A16F040A22F232FA9
:10120000342F4427585FF3CF469537952795A795F8
:10121000F0405395C9F77EF41F16BA0B620B730B9F
:10122000840BBAF09150A1F0FF0FBB1F661F771F10
:10123000881FC2F70EC0BA0F621F731F841F48F4C5
:10124000879577956795B795F7959E3F08F0B0CF4E
:101250009395880F08F09927EE0F97958795089535
:101260000E941A0A08F481E008950E9449090C942A
:10127000550A0E944E0A58F00E94470A40F029F48D
:101280005F3F29F00C943E0A51110C94890A0C948A
:10129000440A0E94660A68F39923B1F3552391F337
:1012A000951B550BBB27AA2762177307840738F0D5
:1012B0009F5F5F4F220F331F441FAA1FA9F335D032
:1012C0000E2E3AF0E0E832D091505040E695001CE6
:1012D000CAF72BD0FE2F29D0660F771F881FBB1FA0
:1012E000261737074807AB07B0E809F0BB0B802D7E
:1012F000BF01FF2793585F4F3AF09E3F510578F0AA
:101300000C943E0A0C94890A5F3FE4F3983ED4F3B0
:10131000869577956795B795F7959F5FC9F7880F7D
:10132000911D9695879597F90895E1E0660F771FCF
:10133000881FBB1F621773078407BA0720F0621B60
:10134000730B840BBA0BEE1F88F7E09508950E948B
:10135000AE096894B1110C94890A08950E946E0A2E
:1013600088F09F5798F0B92F9927B751B0F0E1F066
:10137000660F771F881F991F1AF0BA95C9F714C016
:10138000B13091F00E94880AB1E008950C94880A67
:10139000672F782F8827B85F39F0B93FCCF386954F
:1013A00077956795B395D9F73EF4909580957095AC
:1013B00061957F4F8F4F9F4F0895E89409C097FB29
:1013C0003EF490958095709561957F4F8F4F9F4F1C
:1013D0009923A9F0F92F96E9BB279395F695879560
:1013E00077956795B795F111F8CFFAF4BB0F11F423
:1013F00060FF1BC06F5F7F4F8F4F9F4F16C08823CA
:1014000011F096E911C0772321F09EE8872F762FFF
:1014100005C0662371F096E8862F70E060E02AF040
:101420009A95660F771F881FDAF7880F969587952C
:1014300097F90895990F0008550FAA0BE0E8FEEF01
:1014400016161706E807F907C0F012161306E40788
:10145000F50798F0621B730B840B950B39F40A2681
:1014600061F0232B242B252B21F408950A2609F45F
:10147000A140A6958FEF811D811D089597F99F6763
:1014800080E870E060E008959FEF80EC089500240C
:101490000A941616170618060906089500240A94D9
:1014A00012161306140605060895092E0394000C5F
:1014B00011F4882352F0BB0F40F4BF2B11F460FFEE
:1014C00004C06F5F7F4F8F4F9F4F089557FD905817
:1014D000440F551F59F05F3F71F04795880F97FBF8
:1014E000991F61F09F3F79F08795089512161306B2
:1014F0001406551FF2CF4695F1DF08C016161706E1
:101500001806991FF1CF8695710561050894089515
:10151000E894BB2766277727CB0197F908950E94A7
:101520001A0A08F48FEF08950E94A70A0C94550A2E
:101530000E94470A38F00E944E0A20F0952311F0CD
:101540000C943E0A0C94440A11240C94890A0E94BB
:10155000660A70F3959FC1F3950F50E0551F629F87
:10156000F001729FBB27F00DB11D639FAA27F00DFC
:10157000B11DAA1F649F6627B00DA11D661F829F23
:101580002227B00DA11D621F739FB00DA11D621F08
:10159000839FA00D611D221F749F3327A00D611D25
:1015A000231F849F600D211D822F762F6A2F112407
:1015B0009F5750409AF0F1F088234AF0EE0FFF1F3A
:1015C000BB1F661F771F881F91505040A9F79E3F91
:1015D000510580F00C943E0A0C94890A5F3FE4F3B5
:1015E000983ED4F3869577956795B795F795E795E7
:1015F0009F5FC1F7FE2B880F911D9695879597F9F0
:10160000089519F416F40C94440A0C94470B0E94A4
:101610006E0AB8F39923C9F3B6F39F57550B87FFAA
:101620000E94550B0024A0E640EA90018058569590
:10163000979528F4805C660F771F881F20F0261787
:101640003707480730F4621B730B840B20293129BC
:101650004A2BA69517940794202531254A2758F739
:10166000660F771F881F20F026173707480730F4CA
:10167000620B730B840B200D311D411DA09581F76A
:10168000B901842F9158880F9695879508959F3FAB
:1016900031F0915020F4879577956795B795880F2D
:1016A000911D9695879597F9089591505040660F32
:1016B000771F881FD2F7089581E090E0F8940C948A
:0616C000610BF894FFCF5E
:1016C60000000000D50151019E017C0190011C0221
:1016D600656D6F6E5458204354313233206E6F203F
:1016E600524620566F6C74616765206578616D702F
:1016F6006C65000D0A004F70656E456E6572677900
:101706004D6F6E69746F722E6F7267006374313A33
:10171600002C6374323A002C6374333A002C7672D0
:041726006D733A00A5
:00000001FF
