:100000000C9462000C9417050C94F0040C948A0074
:100010000C948A000C948A000C94E0050C948A00DD
:100020000C948A000C948A000C948A000C948A0028
:100030000C948A000C948A000C948A000C948A0018
:100040000C943E050C948A000C94AE050C94880523
:100050000C948A000C948A000C948A000C948A00F8
:100060000C948A000C948A000000000023002600F3
:10007000290000000000240027002A0000000000E2
:10008000250028002B0004040404040404040202D4
:100090000202020203030303030301020408102007
:1000A0004080010204081020010204081020000012
:1000B0000008000201000003040700000000000027
:1000C0000000B70911241FBECFEFD8E0DEBFCDBFBF
:1000D00011E0A0E0B1E0EAE3F9E102C005900D9281
:1000E000A436B107D9F723E0A4E6B1E001C01D9220
:1000F000AE37B207E1F710E0C2E6D0E004C02197C6
:10010000FE010E94250AC136D107C9F70E94F105F8
:100110000C949B0C0C94000008952CB521602CBD10
:100120002A989EBD0DB407FEFDCF2EB530E0322FCC
:1001300022278EBD0DB407FEFDCF9EB52A9A8CB541
:100140008E7F8CBDA901492BCA010895E8980E94B1
:100150008D00E89A08958627682F62956827062EF5
:10016000669566956025062E669560256770082E53
:10017000892F669507946795902D86270694679535
:10018000902586270895CF9380E090E00E948D000F
:100190008091E002853091F580E090EB0E948D0027
:1001A000682F8091DF02811104C09091DE029111CD
:1001B00076C0E091DF0281E08E0F8093DF02F0E0F5
:1001C000E956FD4F608380919502909196020E94BE
:1001D000AB009093960280939502809199022091B2
:1001E000DF0290E0049630E0821793070CF462C0BF
:1001F0008091DF02873408F05DC061C08091E00229
:1002000087FF1BC0E09199028091E00291E0980F76
:100210009093E002ED5F8E0FE82FF0E0E956FD4F7E
:10022000C08180919502909196026C2F0E94AB0044
:1002300090939602809395022EC08091E0028330C5
:10024000F1F054F48823A9F08130E9F4809195020B
:1002500090919602C92F1AC08930B9F08A3099F46A
:10026000C091DE02909199028DEF891B8093E0028C
:100270000DC08091950290919602C82F07C08DE025
:1002800092E80E948D00CAEA01C0CDE28091E002AE
:100290008F5F8093E0028C2F90E098540DC0E09126
:1002A000DF0281E08E0F8093DF02F0E0E956FD4F20
:1002B00090837FCF8DE092E8CF910C948D00CF9109
:1002C000089583FF02C098E2892787FD06C08064F5
:1002D000909160009093940202C08091940294B730
:1002E000977F94BFF894909160009861909360001C
:1002F0008093600078940895833081F028F48130F1
:1003000099F08230A1F008958730A9F08830B9F0D3
:100310008430D1F4809180008F7D03C08091800073
:100320008F7780938000089584B58F7702C084B55D
:100330008F7D84BD08958091B0008F7703C0809138
:10034000B0008F7D8093B00008951F93CF93DF930B
:10035000282F30E0F901E255FF4F8491F901E6566C
:10036000FF4FD491F901EA57FF4FC491CC23C9F054
:10037000162F81110E947C01EC2FF0E0EE0FFF1F81
:10038000E458FF4FA591B4918FB7F894111105C0AF
:100390009C91ED2FE095E92302C0EC91ED2BEC93BD
:1003A0008FBFDF91CF911F910895CF93DF9390E09E
:1003B000FC01E656FF4F2491FC01EA57FF4F849160
:1003C000882361F190E0880F991FFC01EE58FF4FE0
:1003D000C591D491FC01E458FF4FA591B4916111EE
:1003E00009C09FB7F8948881209582238883EC9177
:1003F0002E230BC0623061F49FB7F8943881822FAE
:10040000809583238883EC912E2B2C939FBF06C06D
:100410008FB7F894E8812E2B28838FBFDF91CF917F
:1004200008953FB7F8948091900290919102A09125
:100430009202B091930226B5A89B05C02F3F19F0F8
:100440000196A11DB11D3FBFBA2FA92F982F882754
:10045000820F911DA11DB11DBC01CD0142E0660FAF
:10046000771F881F991F4A95D1F708958F929F9201
:10047000AF92BF92CF92DF92EF92FF926B017C011D
:100480000E9411024B015C01C114D104E104F1048A
:10049000F1F00E941102DC01CB0188199909AA0927
:1004A000BB09883E9340A105B10570F321E0C21A53
:1004B000D108E108F10888EE880E83E0981EA11C9F
:1004C000B11CC114D104E104F10419F7DDCFFF9090
:1004D000EF90DF90CF90BF90AF909F908F90089556
:1004E0008EE480937C0062E070E080E090E00E9407
:1004F000360280917A00806480937A0080917A003D
:1005000086FDFCCF809178002091790030E0322F79
:100510002227A901330F660B770B9A01AB01282B19
:1005200060E070E381E190E00E94060ACA01B9012F
:100530000895CF92DF92EF92FF920F931F93CF9384
:10054000DF936C017A018B01C0E0D0E0CE15DF05AE
:1005500089F0D8016D918D01D601ED91FC9101904A
:10056000F081E02DC6010995892B11F47E0102C0AE
:100570002196ECCFC701DF91CF911F910F91FF9092
:10058000EF90DF90CF900895FC01918D828D9817A8
:1005900061F0828DDF01A80FB11D5D968C91928D67
:1005A0009F5F9F73928F90E008958FEF9FEF089564
:1005B000FC01918D828D981731F0828DE80FF11D2D
:1005C000858D90E008958FEF9FEF0895FC01918D48
:1005D000228D892F90E0805C9F4F821B91098F7341
:1005E0009927089581EE92E00E94E60221E0892B8E
:1005F00009F420E0822F0895FC01848DDF01A80F0B
:10060000B11DA35ABF4F2C91848D90E001968F733A
:100610009927848FA689B7892C93A089B1898C9159
:1006200080648C93938D848D981306C00288F3891F
:10063000E02D80818F7D80830895EF92FF920F934C
:100640001F93CF93DF93EC0181E0888F9B8D8C8D7E
:10065000981305C0E889F989808185FD24C0F62EAC
:100660000B8D10E00F5F1F4F0F731127E02E8C8D45
:10067000E8120CC00FB607FCFACFE889F98980812F
:1006800085FFF5CFCE010E94FC02F1CF8B8DFE01DC
:10069000E80FF11DE35AFF4FF0820B8FEA89FB89C7
:1006A0008081806207C0EE89FF896083E889F989CB
:1006B00080818064808381E090E0DF91CF911F9101
:1006C0000F91FF90EF900895CF93DF93EC01888D09
:1006D0008823C9F0EA89FB89808185FD05C0A88946
:1006E000B9898C9186FD0FC00FB607FCF5CF8081CC
:1006F00085FFF2CFA889B9898C9185FFEDCFCE0116
:100700000E94FC02E7CFDF91CF91089580E090E056
:10071000892B29F00E94F20281110C9400000895A7
:10072000009769F0FC0101900020E9F73197AF01D3
:10073000481B590BBC0181EE92E00C94990280E0B9
:1007400090E008958F929F92AF92BF920F931F9364
:10075000CF93DF93CDB7DEB7A1970FB6F894DEBF86
:100760000FBECDBF19A2423008F44AE08E010F5DE2
:100770001F4F842E912CA12CB12CA50194010E9415
:10078000E409E62FB901CA0101501109EA3014F455
:10079000E05D01C0E95CD801EC93232B242B252BD1
:1007A00061F7C8010E949003A1960FB6F894DEBFCE
:1007B0000FBECDBFDF91CF911F910F91BF90AF9032
:1007C0009F908F900895CF92DF92EF92FF92CF93F8
:1007D000DF936B017C01E091E102F091E202019074
:1007E000F081E02D6DE281EE92E00995EC01662743
:1007F0007727CB016C197D098E099F094AE00E9479
:10080000A2038C0F9D1FDF91CF91FF90EF90DF909F
:10081000CF900895BC01990F880B990B97FD0C940C
:10082000E3034AE00C94A2032F923F924F925F920F
:100830006F927F928F929F92AF92BF92CF92DF92F0
:10084000EF92FF920F931F93CF93DF9300D000D0CE
:10085000CDB7DEB79C838B830E9470026B017C0155
:1008600008EC15E08B819C81885B9F4F9A8389837C
:100870002B803C809CE4290E311CEB81FC81868915
:100880008E3008F08E508770806480937C00809159
:100890007A00806480937A0080917A0086FDFCCF94
:1008A000609178008091790070E0782BEB81FC8179
:1008B00077A366A3072E000C880B990B0E94420BAE
:1008C0004B015C01EB81FC8140AC51AC62AC73AC80
:1008D000A30192010E942B0A20E030E040E85AE395
:1008E0000E94CE0B9B01AC01C301B2010E942C0AF5
:1008F0009B01AC01EB81FC8160AF71AF82AF93AF24
:10090000C501B4010E942B0AEB81FC8160AB71AB85
:1009100082AB93AB9B01AC010E94CE0BE981FA81C3
:100920006083718382839383F101208131814281CD
:1009300053810E942C0AF101608371838283938327
:100940000150110909F099CF20E030E049EB54E45F
:100950000E94980A0E94410C4B015C01B601DD0C1B
:10096000880B990B0E94420B20E030E04AE754E4E8
:100970000E94980A20E030E040E85AE30E94CE0B43
:10098000EB81FC81248D358D468D578D0E94CE0BD9
:10099000A50194010E94CE0BEB81FC81608B718BD1
:1009A000828B938BF10110821182128213820F903D
:1009B0000F900F900F90DF91CF911F910F91FF90AB
:1009C000EF90DF90CF90BF90AF909F908F907F90EF
:1009D0006F905F904F903F902F9008950E94960CDB
:1009E0001F920F920FB60F9211242F933F934F93A4
:1009F0005F936F937F938F939F93AF93BF93EF9387
:100A0000FF93E0910201F09103010995FF91EF91AD
:100A1000BF91AF919F918F917F916F915F914F9116
:100A20003F912F910F900FBE0F901F9018951F921E
:100A30000F920FB60F9211242F933F934F935F9312
:100A40006F937F938F939F93AF93BF93EF93FF9396
:100A5000E0910001F09101010995FF91EF91BF91A3
:100A6000AF919F918F917F916F915F914F913F9146
:100A70002F910F900FBE0F901F9018951F920F92FD
:100A80000FB60F9211242F933F938F939F93AF93A1
:100A9000BF9380918C0290918D02A0918E02B091B3
:100AA0008F0230918B0223E0230F2D3720F4019623
:100AB000A11DB11D05C026E8230F0296A11DB11D81
:100AC00020938B0280938C0290938D02A0938E02D0
:100AD000B0938F028091900290919102A091920226
:100AE000B09193020196A11DB11D80939002909345
:100AF0009102A0939202B0939302BF91AF919F9104
:100B00008F913F912F910F900FBE0F901F901895CE
:100B10001F920F920FB60F9211242F933F934F9372
:100B20005F936F937F938F939F93AF93BF93EF9355
:100B3000FF9381EE92E00E94FC02FF91EF91BF9142
:100B4000AF919F918F917F916F915F914F913F9165
:100B50002F910F900FBE0F901F9018951F920F921C
:100B60000FB60F9211242F938F939F93EF93FF93C0
:100B7000E091F102F091F2028081E091F702F091B0
:100B8000F80282FD12C090818091FA028F5F8F730C
:100B90002091FB02821751F0E091FA02F0E0EF5150
:100BA000FD4F958F8093FA0201C08081FF91EF91F4
:100BB0009F918F912F910F900FBE0F901F901895BE
:100BC0001F920F920FB60F9211248F9380916D0197
:100BD0008F5F80936D018F910F900FBE0F901F90CC
:100BE0001895CF93DF9300D01F92CDB7DEB77894DE
:100BF00084B5826084BD84B5816084BD85B5826022
:100C000085BD85B5816085BD80916E0081608093D2
:100C10006E0010928100809181008260809381003B
:100C2000809181008160809381008091800081604B
:100C3000809380008091B10084608093B1008091A6
:100C4000B00081608093B00080917A0084608093CE
:100C50007A0080917A00826080937A0080917A0095
:100C6000816080937A0080917A00806880937A0016
:100C70001092C100E091F102F091F20282E08083D3
:100C8000E091ED02F091EE021082E091EF02F0911E
:100C9000F0028FEC80831092F902E091F502F0915E
:100CA000F60286E08083E091F302F091F402808105
:100CB00080618083E091F302F091F402808188608A
:100CC0008083E091F302F091F40280818068808358
:100CD000E091F302F091F40280818F7D808384E1C2
:100CE00091E00E94900389E291E00E9490038CE2DF
:100CF00091E00E94900389E291E00E94900382E4D7
:100D000091E00E9490038AE090E00E940A0489E446
:100D100091E00E94900381E591E00E94900388E5B4
:100D200091E00E9490034AE062ED70E080E090E084
:100D30000E94A20389E291E00E94900383E090E088
:100D4000909346028093450243E353E36EED72E4D1
:100D500040934B0250934C0260934D0270934E02AD
:100D600080E090E0A0E0B4E4809367029093680292
:100D7000A0936902B0936A021092E2011092E1011D
:100D80004093E7015093E8016093E9017093EA0111
:100D90008093030290930402A0930502B09306028D
:100DA00021E030E0309386012093850140938B0150
:100DB00050938C0160938D0170938E018093A701F5
:100DC0009093A801A093A901B093AA018AE080930F
:100DD0006C0182ED8093DE0280E496E090936501E1
:100DE000809364012A9A229A61E08AE00E94A50118
:100DF00061E08AE00E94D50161E08BE00E94D501AC
:100E000060E08CE00E94D50161E08DE00E94D50198
:100E100080E58CBD8DB581608DBD60E082E00E9473
:100E2000D50161E082E00E94A50180E090E00E948F
:100E30008D0085E092E80E948D0080E098EB0E9492
:100E40008D00F0EBAF2EF0E0BF2E0CE910E0A8E82B
:100E5000EA2EA0E0FA2EF5018491F801C490F70182
:100E6000D490D11005C080E090E00E948D00F3CFB7
:100E700081110E947C018D2D90E0880F991F885967
:100E80009F4FFC01A591B4918C91C82261F387EE2C
:100E900090E80E948D0080916401909165019056C8
:100EA0000E948D0086E096EC0E948D0082EA94E913
:100EB0000E948D008CEA92EC0E948D001091DE025F
:100EC000112341F083E89AEC0E948D00812F90E07D
:100ED0009E6C06C08BE89AEC0E948D008DE29EEC21
:100EE0000E948D0083E894EC0E948D0080E598E9D3
:100EF0000E948D0087E79CEC0E948D0080E090EEC0
:100F00000E948D0080E098EC0E948D0089E490ECB6
:100F10000E948D0084E08093E00280916C018F71CB
:100F200069F083EC90E0909301018093000180913F
:100F300069008C7F80936900E89A07C0E8988CE884
:100F400090E0909301018093000180E095EE0E9473
:100F5000A60085E092E80E94A60084E08093E0026B
:100F600061E089E00E94D50161E089E00E94A5016D
:100F700099E288E10FB6F894A895809360000FBEBF
:100F80009093600020916A0130916B013B832A832A
:100F9000EE24EA94FE2C44244A94542C3201222458
:100FA0002394312C690168E8862E63E1962E78E05F
:100FB000A72EB12C8FE292E00E94140420E030E0D2
:100FC00040E753E40E94CE0B0E940A0B7093280264
:100FD00060932702CB010E940A048BEC91E00E94EF
:100FE000140420E030E040E753E40E94CE0B0E945E
:100FF0000A0B70932A026093290287E491E00E9411
:1010000090038091290290912A020E940A048FE69F
:1010100091E00E94140420E030E040E753E40E9495
:10102000CE0B0E940A0B70932C0260932B0287E474
:1010300091E00E94900380912B0290912C020E94DB
:101040000A048FE292E00E94700270932E02609375
:101050002D0287E491E00E94900380912D029091EF
:101060002E020E940A0489E291E00E94900364E645
:1010700070E080E090E00E94360280916E01811164
:1010800011C02FB7F89480918C0290918D02A0919D
:101090008E02B0918F022FBF89389341A105B1050F
:1010A00008F0EEC080916E01882309F4E6C08DE05F
:1010B00092E80E94A60084E08093E0020BE010E03A
:1010C0008091E002853009F0DFC08091DF0281115C
:1010D000DBC080E090E00E94A60090FDD5C08DE0CE
:1010E00092E80E94A60084E08093E00288E080936A
:1010F0009902E7E2F2E0AAE9B2E001900D928A9546
:10110000E1F780916C018F7180939802C114D10432
:1011100019F081E0F6010995F0929602E0929502AD
:1011200080919502909196026091DE020E94AB0040
:10113000909396028093950286E08093E0028DE37F
:1011400092E80E948D001091E002143061F083B7A4
:10115000817F8C6083BF83B7816083BF889583B7AD
:101160008E7F83BFF0CF80E095EE0E94A60085E0E1
:1011700092E80E94A6001093E00261E089E00E94DC
:10118000A50162E070E080E090E00E94360260E03D
:1011900089E00E94A50180912D0290912E02853E4A
:1011A0009C406CF005E010E068EE73E080E090E0B9
:1011B0000E943602A89501501109B1F75EC008E8F7
:1011C00013E1980190E02032310530F09F5F9930B3
:1011D00019F036952795F7CF10926D01892F9983D5
:1011E0000E94610120917A0080917A008F7780932C
:1011F0007A0083B7817F846083BFF89483B781606E
:1012000083BF85B7806685BF85B78F79806485BFCA
:101210007894889583B78E7F83BF20937A008FEF71
:101220000E9461019981950102C0220F331F9A9596
:10123000E2F7C901021B130B20916D01222331F04B
:10124000081B190B0031110508F0BBCF80918C02EF
:1012500090918D02A0918E02B0918F029401201B7B
:10126000310B820F931FA11DB11D80938C029093AF
:101270008D02A0938E02B0938F020E9486039ACEB5
:1012800081E080936E010ECF0150110909F42ECF39
:101290008091E002853081F5809199022091DF02F2
:1012A00090E0049630E08217930724F08091DF02EB
:1012B000873410F134E03093E002809195029091F0
:1012C00096029093960280939502809199028334BE
:1012D00020F030929602209295028091980286FF2B
:1012E0002EC080916C01982F9F719F3141F1909198
:1012F000980289278F7119F18091E002843009F0FA
:10130000DFCE109299021092DF02F0929602E092E4
:1013100095026091DE02662351F0809195029091D2
:1013200096020E94AB00909396028093950295E0FE
:101330009093E0028DED92E80E948D00C1CE8091E5
:10134000950290919602892B21F48A819B81892BA9
:1013500049F4409266015092670160926801709270
:101360006901AECE80E0EA81FB810995A9CEE1EE6C
:10137000F2E01382128288EE93E0A0E0B0E0848372
:101380009583A683B78388E091E09183808385EC81
:1013900090E09587848784EC90E09787868780EC3F
:1013A00090E0918B808B81EC90E0938B828B82EC30
:1013B00090E0958B848B86EC90E0978B868B118EDA
:1013C000128E138E148E0895A1E21A2EAA1BBB1B37
:1013D000FD010DC0AA1FBB1FEE1FFF1FA217B30701
:1013E000E407F50720F0A21BB30BE40BF50B661F17
:1013F000771F881F991F1A9469F7609570958095DB
:1014000090959B01AC01BD01CF010895052E97FB7E
:101410001EF400940E941D0A57FD07D00E94E409A3
:1014200007FC03D04EF40C941D0A5095409530955E
:1014300021953F4F4F4F5F4F089590958095709540
:1014400061957F4F8F4F9F4F0895EE0FFF1F0590BF
:10145000F491E02D09945058BB27AA270E94430A13
:101460000C94940B0E94860B38F00E948D0B20F098
:1014700039F49F3F19F426F40C94830B0EF4E09595
:10148000E7FB0C947D0BE92F0E94A50B58F3BA17CC
:10149000620773078407950720F079F4A6F50C948A
:1014A000C70B0EF4E0950B2EBA2FA02D0B01B9013E
:1014B00090010C01CA01A0011124FF27591B99F0CA
:1014C000593F50F4503E68F11A16F040A22F232FD6
:1014D000342F4427585FF3CF469537952795A79526
:1014E000F0405395C9F77EF41F16BA0B620B730BCD
:1014F000840BBAF09150A1F0FF0FBB1F661F771F3E
:10150000881FC2F70EC0BA0F621F731F841F48F4F2
:10151000879577956795B795F7959E3F08F0B0CF7B
:101520009395880F08F09927EE0F97958795089562
:101530000E94AC0A0C94940B0E948D0B58F00E94F0
:10154000860B40F029F45F3F29F00C947D0B51117C
:101550000C94C80B0C94830B0E94A50B68F3992381
:10156000B1F3552391F3951B550BBB27AA2762179F
:101570007307840738F09F5F5F4F220F331F441FAC
:10158000AA1FA9F335D00E2E3AF0E0E832D09150E0
:101590005040E695001CCAF72BD0FE2F29D0660FCD
:1015A000771F881FBB1F261737074807AB07B0E810
:1015B00009F0BB0B802DBF01FF2793585F4F3AF016
:1015C0009E3F510578F00C947D0B0C94C80B5F3F47
:1015D000E4F3983ED4F3869577956795B795F7959C
:1015E0009F5FC9F7880F911D9695879597F9089584
:1015F000E1E0660F771F881FBB1F62177307840720
:10160000BA0720F0621B730B840BBA0BEE1F88F72E
:10161000E09508950E94110B6894B1110C94C80BC9
:1016200008950E94AD0B88F09F5798F0B92F992725
:10163000B751B0F0E1F0660F771F881F991F1AF0BD
:10164000BA95C9F714C0B13091F00E94C70BB1E050
:1016500008950C94C70B672F782F8827B85F39F04F
:10166000B93FCCF3869577956795B395D9F73EF456
:1016700090958095709561957F4F8F4F9F4F0895FE
:10168000E89409C097FB3EF490958095709561951C
:101690007F4F8F4F9F4F9923A9F0F92F96E9BB27D2
:1016A0009395F695879577956795B795F111F8CF4E
:1016B000FAF4BB0F11F460FF1BC06F5F7F4F8F4FB9
:1016C0009F4F16C0882311F096E911C0772321F0AF
:1016D0009EE8872F762F05C0662371F096E8862F47
:1016E00070E060E02AF09A95660F771F881FDAF79E
:1016F000880F9695879597F9089597F99F6780E8E1
:1017000070E060E008959FEF80EC089500240A9453
:101710001616170618060906089500240A941216CC
:101720001306140605060895092E0394000C11F4FF
:10173000882352F0BB0F40F4BF2B11F460FF04C0AC
:101740006F5F7F4F8F4F9F4F089557FD9058440F05
:10175000551F59F05F3F71F04795880F97FB991F10
:1017600061F09F3F79F087950895121613061406CD
:10177000551FF2CF4695F1DF08C01616170618065A
:10178000991FF1CF86957105610508940895E89435
:10179000BB2766277727CB0197F908950E94E10BB5
:1017A0000C94940B0E94860B38F00E948D0B20F055
:1017B000952311F00C947D0B0C94830B11240C9445
:1017C000C80B0E94A50B70F3959FC1F3950F50E0D5
:1017D000551F629FF001729FBB27F00DB11D639FE3
:1017E000AA27F00DB11DAA1F649F6627B00DA11D89
:1017F000661F829F2227B00DA11D621F739FB00D2F
:10180000A11D621F839FA00D611D221F749F33279E
:10181000A00D611D231F849F600D211D822F762F37
:101820006A2F11249F5750409AF0F1F088234AF014
:10183000EE0FFF1FBB1F661F771F881F9150504080
:10184000A9F79E3F510580F00C947D0B0C94C80BBA
:101850005F3FE4F3983ED4F3869577956795B79507
:10186000F795E7959F5FC1F7FE2B880F911D969521
:10187000879597F9089519F416F40C94830B0C943A
:10188000810C0E94AD0BB8F39923C9F3B6F39F57AF
:10189000550B87FF0E948F0C0024A0E640EA9001C0
:1018A00080585695979528F4805C660F771F881F9F
:1018B00020F026173707480730F4621B730B840BA0
:1018C000202931294A2BA6951794079420253125E4
:1018D0004A2758F7660F771F881F20F0261737070B
:1018E000480730F4620B730B840B200D311D411D32
:1018F000A09581F7B901842F9158880F9695879507
:1019000008959F3F31F0915020F487957795679522
:10191000B795880F911D9695879597F908959150E1
:101920005040660F771F881FD2F7089581E090E03E
:0A193000F8940C949B0CF894FFCF80
:10193A008C008C00000000001D039902E602C4021C
:10194A00D8026403656D6F6E5458204354313233A4
:10195A00206578616D706C65000D0A004F70656EC8
:10196A00456E657267794D6F6E69746F722E6F720C
:10197A0067004E6F64653A200020467265713A200E
:10198A00003836384D687A00204E6574776F726B6E
:04199A003A200000EF
:00000001FF
