:100000000C9462000C9481030C945A030C948A00A3
:100010000C948A000C948A000C94DD010C948A00E4
:100020000C948A000C948A000C948A000C948A0028
:100030000C948A000C948A000C948A000C948A0018
:100040000C946E050C948A000C94AB010C94850101
:100050000C948A000C948A000C948A000C948A00F8
:100060000C948A000C948A000000000023002600F3
:10007000290000000000240027002A0000000000E2
:10008000250028002B0004040404040404040202D4
:100090000202020203030303030301020408102007
:1000A0004080010204081020010204081020000012
:1000B0000008000201000003040700000000000027
:1000C0000000130F11241FBECFEFD8E0DEBFCDBF5D
:1000D00012E0A0E0B1E0E8EAF4E202C005900D927F
:1000E000A230B107D9F723E0A2E0B2E001C01D922F
:1000F000A13BB207E1F710E0C2E6D0E004C02197CF
:10010000FE010E94A90FC136D107C9F70E94B805A8
:100110000C9452120C940000CF92DF92EF92FF9257
:100120000F931F93CF93DF936C017A018B01C0E093
:10013000D0E0CE15DF0589F0D8016D918D01D60193
:10014000ED91FC910190F081E02DC6010995892B7C
:1001500011F47E0102C02196ECCFC701DF91CF914F
:100160001F910F91FF90EF90DF90CF900895FC01C9
:10017000918D828D981761F0828DDF01A80FB11DDE
:100180005D968C91928D9F5F9F73928F90E0089502
:100190008FEF9FEF0895FC01918D828D981731F0BC
:1001A000828DE80FF11D858D90E008958FEF9FEF10
:1001B0000895FC01918D228D892F90E0805C9F4FE6
:1001C000821B91098F73992708958BE093E00E9419
:1001D000D90021E0892B09F420E0822F0895FC0149
:1001E000848DDF01A80FB11DA35ABF4F2C91848DC0
:1001F00090E001968F739927848FA689B7892C93F5
:10020000A089B1898C9180648C93938D848D98138F
:1002100006C00288F389E02D80818F7D8083089558
:10022000EF92FF920F931F93CF93DF93EC0181E046
:10023000888F9B8D8C8D981305C0E889F989808102
:1002400085FD24C0F62E0B8D10E00F5F1F4F0F733E
:100250001127E02E8C8DE8120CC00FB607FCFACFE8
:10026000E889F989808185FFF5CFCE010E94EF00F2
:10027000F1CF8B8DFE01E80FF11DE35AFF4FF082A5
:100280000B8FEA89FB898081806207C0EE89FF8934
:100290006083E889F98980818064808381E090E0CF
:1002A000DF91CF911F910F91FF90EF900895CF9321
:1002B000DF93EC01888D8823C9F0EA89FB8980816E
:1002C00085FD05C0A889B9898C9186FD0FC00FB640
:1002D00007FCF5CF808185FFF2CFA889B9898C9181
:1002E00085FFEDCFCE010E94EF00E7CFDF91CF91E8
:1002F000089580E090E0892B29F00E94E5008111AB
:100300000C94000008950E944D121F920F920FB698
:100310000F9211242F933F934F935F936F937F938B
:100320008F939F93AF93BF93EF93FF938BE093E0F3
:100330000E94EF00FF91EF91BF91AF919F918F913C
:100340007F916F915F914F913F912F910F900FBED1
:100350000F901F9018951F920F920FB60F921124B5
:100360002F938F939F93EF93FF93E0911B03F09153
:100370001C038081E0912103F091220382FD12C0D1
:100380009081809124038F5F8F73209125038217C2
:1003900051F0E0912403F0E0E55FFC4F958F8093EE
:1003A000240301C08081FF91EF919F918F912F9144
:1003B0000F900FBE0F901F9018951F920F920FB6BF
:1003C0000F9211248F93809102028F5F809302021B
:1003D0008F910F900FBE0F901F90189508953FB703
:1003E000F8948091AD039091AE03A091AF03B091CA
:1003F000B00326B5A89B05C02F3F19F00196A11D9B
:10040000B11D3FBFBA2FA92F982F8827820F911DAA
:10041000A11DB11DBC01CD0142E0660F771F881FF1
:10042000991F4A95D1F70895009769F0FC01019052
:100430000020E9F73197AF01481B590BBC018BE055
:1004400093E00C948C0080E090E008958F929F924E
:10045000AF92BF920F931F93CF93DF93CDB7DEB7C9
:10046000A1970FB6F894DEBF0FBECDBF19A24230E0
:1004700008F44AE08E010F5D1F4F842E912CA12CB1
:10048000B12CA50194010E94540FE62FB901CA01B5
:1004900001501109EA3014F4E05D01C0E95CD801B3
:1004A000EC93232B242B252B61F7C8010E94140207
:1004B000A1960FB6F894DEBF0FBECDBFDF91CF91EE
:1004C0001F910F91BF90AF909F908F900895E091F2
:1004D0000B03F0910C030190F081E02D682F8BE06D
:1004E00093E009944F925F926F927F928F929F92C6
:1004F000AF92BF92CF92DF92EF92FF926B017C019D
:10050000B42E9B01AC010E943312882319F085EFB1
:1005100091E027C026013701E89477F82FEF3FEFED
:100520004FE75FE7C301B2010E94331281110DC092
:100530002FEF3FEF4FE75FE7C301B2010E941C10AE
:1005400018161CF489EF91E00CC02FEF3FEF4FE736
:100550005FE4C701B6010E947B11181684F48DEF89
:1005600091E0FF90EF90DF90CF90BF90AF909F9081
:100570008F907F906F905F904F900C9414022FEFAC
:100580003FEF4FE75FECC701B6010E941C1087FDEB
:10059000E6CF20E030E0A901C701B6010E941C109F
:1005A00087FF09C08DE20E9467024C01F7FAF094C0
:1005B000F7F8F09402C0812C912CA12C60E070E03F
:1005C00080E09FE3AB1441F020E030E040E251E4F2
:1005D0000E942110A394F6CF9B01AC01C701B60184
:1005E0000E94B00F2B013C010E949A106B017C010C
:1005F0000E94C9109B01AC01C301B2010E94AF0F60
:100600002B013C014AE0C701B6010E9426027C0191
:10061000E80CF91CBB2029F08EE20E946702E80E6C
:10062000F91EDB2CDD2021F120E030E040E251E436
:10063000C301B2010E9480112B013C010E949A105B
:100640004B01A12CB12C4AE0C501B4010E94260245
:10065000E80EF91EC501B4010E94C9109B01AC014E
:10066000C301B2010E94AF0F2B013C01DA94DACF33
:10067000C701FF90EF90DF90CF90BF90AF909F9019
:100680008F907F906F905F904F9008950C9414021C
:10069000CF93DF9342E00E947202EC0189E391E084
:1006A0000E9414028C0F9D1FDF91CF91089542E0AC
:1006B0000C9472021F920F920FB60F9211242F9377
:1006C0003F934F935F936F937F938F939F93AF93DA
:1006D000BF93EF93FF93E0910201F091030109951D
:1006E000FF91EF91BF91AF919F918F917F916F910A
:1006F0005F914F913F912F910F900FBE0F901F90E0
:1007000018951F920F920FB60F9211242F933F93BB
:100710004F935F936F937F938F939F93AF93BF9309
:10072000EF93FF93E0910001F09101010995FF9192
:10073000EF91BF91AF919F918F917F916F915F9159
:100740004F913F912F910F900FBE0F901F901895D2
:100750002CB521602CBD2A989EBD0DB407FEFDCF9F
:100760002EB530E0322F22278EBD0DB407FEFDCF0F
:100770009EB52A9A8CB58E7F8CBDA901492BCA01E2
:100780000895E8980E94A803E89A08958627682F9C
:1007900062956827062E669566956025062E6695F5
:1007A00060256770082E892F669507946795902DB0
:1007B000862706946795902586270895CF9380E035
:1007C00090E00E94A80380910A03853091F580E0B3
:1007D00090EB0E94A803682F80910903811104C047
:1007E00090910803911176C0E091090381E08E0F8A
:1007F00080930903F0E0EF53FD4F60838091BF02C7
:100800009091C0020E94C6039093C0028093BF02E1
:100810008091C3022091090390E0049630E0821792
:1008200093070CF462C080910903873408F05DC01F
:1008300061C080910A0387FF1BC0E091C3028091D1
:100840000A0391E0980F90930A03ED5F8E0FE82F53
:10085000F0E0EF53FD4FC0818091BF029091C00244
:100860006C2F0E94C6039093C0028093BF022EC0DB
:1008700080910A038330F1F054F48823A9F0813089
:10088000E9F48091BF029091C002C92F1AC089304B
:10089000B9F08A3099F4C09108039091C3028DEFAA
:1008A000891B80930A030DC08091BF029091C00202
:1008B000C82F07C08DE092E80E94A803CAEA01C0D1
:1008C000CDE280910A038F5F80930A038C2F90E022
:1008D00098540DC0E091090381E08E0F80930903C5
:1008E000F0E0EF53FD4F90837FCF8DE092E8CF9102
:1008F0000C94A803CF910895833081F028F48130BF
:1009000099F08230A1F008958730A9F08830B9F0CD
:100910008430D1F4809180008F7D03C0809180006D
:100920008F7780938000089584B58F7702C084B557
:100930008F7D84BD08958091B0008F7703C0809132
:10094000B0008F7D8093B00008951F93CF93DF9305
:10095000282F30E0F901E255FF4F8491F901E65666
:10096000FF4FD491F901EA57FF4FC491CC23C9F04E
:10097000162F81110E947C04EC2FF0E0EE0FFF1F78
:10098000E458FF4FA591B4918FB7F894111105C0A9
:100990009C91ED2FE095E92302C0EC91ED2BEC93B7
:1009A0008FBFDF91CF911F910895CF93DF9390E098
:1009B000FC01E656FF4F2491FC01EA57FF4F84915A
:1009C000882361F190E0880F991FFC01EE58FF4FDA
:1009D000C591D491FC01E458FF4FA591B4916111E8
:1009E00009C09FB7F8948881209582238883EC9171
:1009F0002E230BC0623061F49FB7F8943881822FA8
:100A0000809583238883EC912E2B2C939FBF06C067
:100A10008FB7F894E8812E2B28838FBFDF91CF9179
:100A200008958E3008F08E508770806480937C002B
:100A300080917A00806480937A0080917A0086FDAC
:100A4000FCCF809178002091790090E0922B08955E
:100A50008F929F92AF92BF92CF92DF92EF92FF92CE
:100A60006B017C010E94EF014B015C01C114D104B8
:100A7000E104F104F1F00E94EF01DC01CB018819DF
:100A80009909AA09BB09883E9340A105B10570F3F5
:100A900021E0C21AD108E108F10888EE880E83E04F
:100AA000981EA11CB11CC114D104E104F10419F772
:100AB000DDCFFF90EF90DF90CF90BF90AF909F90F1
:100AC0008F9008952FB7F8946091A9037091AA03AD
:100AD0008091AB039091AC032FBF08951F920F92AA
:100AE0000FB60F9211242F933F938F939F93AF9341
:100AF000BF938091A9039091AA03A091AB03B091F9
:100B0000AC033091A80323E0230F2D3720F4019686
:100B1000A11DB11D05C026E8230F0296A11DB11D20
:100B20002093A8038093A9039093AA03A093AB03F7
:100B3000B093AC038091AD039091AE03A091AF034D
:100B4000B091B0030196A11DB11D8093AD039093A8
:100B5000AE03A093AF03B093B003BF91AF919F9149
:100B60008F913F912F910F900FBE0F901F9018956E
:100B7000CF93DF93CDB7DEB7C557D1090FB6F89441
:100B8000DEBF0FBECDBF789484B5826084BD84B5CE
:100B9000816084BD85B5826085BD85B5816085BD78
:100BA00080916E00816080936E0010928100809130
:100BB00081008260809381008091810081608093B8
:100BC0008100809180008160809380008091B100DD
:100BD00084608093B1008091B00081608093B00008
:100BE00080917A00846080937A0080917A0082609C
:100BF00080937A0080917A00816080937A0080915E
:100C00007A00806880937A001092C100E0911B0303
:100C1000F0911C0382E08083E0911703F0911803A8
:100C20001082E0911903F0911A038FEC80831092E7
:100C30002303E0911F03F091200386E08083E0917D
:100C40001D03F0911E03808180618083E0911D036C
:100C5000F0911E03808188608083E0911D03F091F4
:100C60001E03808180688083E0911D03F0911E0344
:100C700080818F7D808384E191E00E94140289E36A
:100C800091E00E9414028CE391E00E94140289E337
:100C900091E00E94140282E591E00E9446034AE03E
:100CA0006AE070E080E090E00E94260289E591E031
:100CB0000E94460381E691E00E94460388E691E0A7
:100CC0000E9446034AE062ED70E080E090E00E94FE
:100CD000260289E391E00E9414028AE08093810257
:100CE00082ED8093080380E496E090930402809361
:100CF00003022A9A229A61E08AE00E94A50461E038
:100D00008AE00E94D50461E08BE00E94D50460E097
:100D10008CE00E94D50461E08DE00E94D50480E55E
:100D20008CBD8DB581608DBD60E082E00E94D504F0
:100D300061E082E00E94A50480E090E00E94A803A8
:100D400085E092E80E94A80380E098EB0E94A80347
:100D500000EB10E0FCE9EF2EF0E0FF2EA8E8CA2E31
:100D6000A0E0DA2EF8018491F701A490F601B49086
:100D7000B11005C080E090E00E94A803F3CF81117C
:100D80000E947C048B2D90E0880F991F88599F4FFB
:100D9000FC01A591B4918C91A82261F387EE90E8B3
:100DA0000E94A803809103029091040290560E9431
:100DB000A80386E096EC0E94A80382EA94E90E94C8
:100DC000A8038CEA92EC0E94A80380910803882370
:100DD00049F083E89AEC0E94A8038091080390E010
:100DE0009E6C06C08BE89AEC0E94A8038DE29EECF4
:100DF0000E94A80383E894EC0E94A80380E598E988
:100E00000E94A80387E79CEC0E94A80380E090EE74
:100E10000E94A80380E098EC0E94A80389E490EC6B
:100E20000E94A80384E080930A03809181028F715D
:100E300069F08EED93E09093010180930001809121
:100E400069008C7F80936900E89A07C0E8988EEE6D
:100E500091E0909301018093000180E095EE0E9463
:100E6000C10385E092E80E94C10384E080930A03F5
:100E700061E089E00E94D50461E089E00E94A50458
:100E800099E288E10FB6F894A895809360000FBEB0
:100E90009093600071E1272E312C20917F023091D8
:100EA0008002AE963FAF2EAFAE978EE480937C006B
:100EB00062E070E080E090E00E94280580917A0076
:100EC000806480937A0080917A0086FDFCCF8091C7
:100ED00078002091790030E0322F2227A901330FCA
:100EE000660B770B9A01AB01282B60E070E381E180
:100EF00090E00E94760FE6962CAF3DAF4EAF5FAF0D
:100F0000E6970E9462056B017C0182E00E94110558
:100F100063969FAF8EAF639790937A028093790226
:100F20000E946205DC01CB018C199D09AE09BF0945
:100F3000813D9740A105B105B0F00E946205E2969F
:100F40006CAF7DAF8EAF9FAFE297AC961FAEAC9704
:100F50006D961FAE1EAE6D972F961FAE1EAE2F97CD
:100F600000E010E068C363968EAD9FAD6397895B28
:100F700091408D36910548F6E0CF4091770250912F
:100F800078022B965FAF4EAF2B975093760240932B
:100F90007502809173029091740267969FAF8EAF35
:100FA00067979093720280937102A0916F02B09143
:100FB00070026F96BFAFAEAF6F97B0936E02A09303
:100FC0006D02E0916B02F0916C02A196FFAFEEAF63
:100FD000A197F0936A02E093690220916502309133
:100FE0006602409167025091680229962CAF3DAF8E
:100FF0004EAF5FAF29972093610230936202409316
:1010000063025093640240905D0250905E026090D3
:101010005F02709060024092590250925A026092B0
:101020005B0270925C028090550290905602A090F4
:101030005702B09058028092510290925202A092B0
:101040005302B092540280914D0290914E02A091B1
:101050004F02B0915002A5968CAF9DAFAEAFBFAF1F
:10106000A5978093490290934A02A0934B02B093B4
:101070004C0282E00E9411056B969FAF8EAF6B977A
:10108000909378028093770283E00E941105A796DF
:101090009FAF8EAFA797909374028093730280E006
:1010A0000E941105A9969FAF8EAFA99790937002E9
:1010B00080936F0281E00E941105AB969FAF8EAFC7
:1010C000AB9790936C0280936B026B96AEADBFAD05
:1010D0006B97BD01BB0F880B990B0E94CB109B0136
:1010E000AC0129966CAD7DAD8EAD9FAD29970E9468
:1010F000B00F6B017C012B96EEADFFAD2B97BF01BE
:10110000FF0F880B990B0E94CB109B01AC01C7010C
:10111000B6010E94AF0F2BED39EF4EE75FE30E945F
:1011200080116B017C01609365027093660280936D
:10113000670290936802A7962EAD3FADA797B901BD
:10114000330F880B990B0E94CB109B01AC01C3019C
:10115000B2010E94B00F2B013C0167964EAD5FAD0E
:101160006797BA01550F880B990B0E94CB109B0112
:10117000AC01C301B2010E94AF0F2BED39EF4EE776
:101180005FE30E9480112D966CAF7DAF8EAF9FAF55
:101190002D9760935D0270935E0280935F0290933F
:1011A0006002A996AEADBFADA997BD01BB0F880B7C
:1011B000990B0E94CB109B01AC01C501B4010E94A8
:1011C000B00F4B015C016F96EEADFFAD6F97BF01A5
:1011D000FF0F880B990B0E94CB109B01AC01C5013E
:1011E000B4010E94AF0F2BED39EF4EE75FE30E9491
:1011F00080112B013C01609355027093560280933D
:10120000570290935802AB962EAD3FADAB97B90104
:10121000330F880B990B0E94CB109B01AC01A59654
:101220006CAD7DAD8EAD9FADA5970E94B00F4B010B
:101230005C01A1964EAD5FADA197BA01550F880B29
:10124000990B0E94CB109B01AC01C501B4010E9417
:10125000AF0F2BED39EF4EE75FE30E9480114B019A
:101260005C0160934D0270934E0280934F02909305
:101270005002C801B1010E94400FFC01EE0FFF1F98
:10128000EE0FFF1F81E090E08C0F9D1FE80FF91F0C
:10129000C082D182E282F3822F96AEADBFAD2F978E
:1012A00013970CF4ACC1A7019601C701B6010E94C7
:1012B00080119B01AC0160934502709346028093BC
:1012C00047029093480260914102709142028091DE
:1012D0004302909144020E94B00F609341027093C8
:1012E000420280934302909344022D962CAD3DAD73
:1012F0004EAD5FAD2D97CA01B9010E9480119B01CF
:10130000AC0160933D0270933E0280933F02909344
:1013100040026091390270913A0280913B029091B3
:101320003C020E94B00F6093390270933A0280939E
:101330003B0290933C02A3019201C301B2010E94BF
:1013400080119B01AC01609335027093360280934B
:10135000370290933802609131027091320280918D
:101360003302909134020E94B00F60933102709367
:1013700032028093330290933402A5019401C50197
:10138000B4010E9480119B01AC0160932D02709307
:101390002E0280932F029093300260912902709167
:1013A0002A0280912B0290912C020E94B00F609330
:1013B000290270932A0280932B0290932C02299683
:1013C0002CAD3DAD4EAD5FAD2997C701B6010E9472
:1013D000AF0F9B01AC0129966CAD7DAD8EAD9FAD7D
:1013E00029970E94B00F29966CAF7DAF8EAF9FAF4B
:1013F0002997609325027093260280932702909389
:101400002802C8010997B1010E94400FFC01EE0FAC
:10141000FF1FEE0FFF1F41E050E04C0F5D1FE40F78
:10142000F51FC080D180E280F380C8010897B10128
:101430000E94400FFC01EE0FFF1FEE0FFF1F81E027
:1014400090E08C0F9D1FE80FF91FA70196016081A6
:101450007181828193810E94AF0F2DE33AE047EDC5
:101460005FE30E9480119B01AC01C701B6010E949D
:10147000B00F69966CAF7DAF8EAF9FAF69976093E9
:101480002102709322028093230290932402C801C8
:101490000196B1010E94400FFC01EE0FFF1FEE0FFD
:1014A000FF1FA1E0B0E0AC0FBD1FEA0FFB1FC08023
:1014B000D180E280F380C8010296B1010E94400F02
:1014C000FC01EE0FFF1FEE0FFF1F21E030E02C0F9D
:1014D0003D1FE20FF31FA701960160817181828198
:1014E00093810E94AF0F9B01AC01C701B6010E941E
:1014F000B00F6B017C0160931D0270931E028093FC
:101500001F02909320022D962CAD3DAD4EAD5FADE8
:101510002D9729966CAD7DAD8EAD9FAD29970E941C
:1015200080119B01AC016093190270931A028093A1
:101530001B0290931C02609115027091160280911B
:101540001702909118020E94B00F609315027093D9
:1015500016028093170290931802A30192016996D4
:101560006CAD7DAD8EAD9FAD69970E9480119B01E2
:10157000AC01609311027093120280931302909356
:10158000140260910D0270910E0280910F029091F1
:1015900010020E94B00F60930D0270930E028093B0
:1015A0000F0290931002A5019401C701B6010E9499
:1015B00080119B01AC016093090270930A02809331
:1015C0000B0290930C0260910502709106028091CB
:1015D0000702909108020E94B00F60930502709379
:1015E000060280930702909308026D964EAD5FADA0
:1015F0006D974F5F5F4F6D965FAF4EAF6D9781E018
:101600006B96AEADBFAD6B976396EEADFFAD6397D6
:10161000EA17FB070CF080E00130110509F50F5FB8
:101620001F4F2F964EAD5FAD2F974631510544F5B4
:10163000AC968FAFAC970E946205DC01CB01E296BD
:101640002CAD3DAD4EAD5FADE297821B930BA40B6D
:10165000B50B803D9740A105B10508F48ECC10C0B4
:10166000AC96FFADAC97F817D1F22F962EAD3FADEB
:101670002F972F5F3F4F2F963FAF2EAF2F97CFCF94
:10168000E496EEADFFADE497BF01FF0F880B990B19
:101690000E94CB1020E030E04AE754E40E94211081
:1016A00020E030EC4FE754E40E9421104B015C0134
:1016B0002CE934E444E653E40E9480112B013C0100
:1016C0006D962EAD3FAD6D97B901330F880B990B19
:1016D0000E94CB106B017C019B01AC016091410227
:1016E0007091420280914302909144020E94211025
:1016F0000E94F3119B01AC01C301B2010E94801151
:1017000029966CAF7DAF8EAF9FAF29976093BB02D8
:101710007093BC028093BD029093BE0220E030E043
:1017200046E053E4C501B4010E9480114B015C0105
:10173000A70196016091390270913A0280913B02B3
:1017400090913C020E9421100E94F3119B01AC0178
:10175000C501B4010E94801161966CAF7DAF8EAF60
:101760009FAF61976093B7027093B8028093B902FC
:101770009093BA02A70196016091310270913202F2
:1017800080913302909134020E9421100E94F31143
:101790009B01AC01C501B4010E9480112D966CAF74
:1017A0007DAF8EAF9FAF2D976093A7027093A80275
:1017B0008093A9029093AA02A70196016091290241
:1017C00070912A0280912B0290912C020E9421108C
:1017D0000E94F3119B01AC01C501B4010E9480116C
:1017E00065966CAF7DAF8EAF9FAF659760939702A4
:1017F000709398028093990290939A02A5019401A4
:10180000C301B2010E9480114B015C0120911502BD
:101810003091160240911702509118020E948011D7
:10182000A70196010E9421102B013C016093B30295
:101830007093B4028093B5029093B60261962CAD7A
:101840003DAD4EAD5FAD619729966CAD7DAD8EAD72
:101850009FAD29970E9480119B01AC016093AF025C
:101860007093B0028093B1029093B202C301B201AF
:101870000E9421106093AB027093AC028093AD0282
:101880009093AE0220910D0230910E0240910F0212
:1018900050911002C501B4010E948011A701960168
:1018A0000E9421102B013C016093A3027093A402BB
:1018B0008093A5029093A6022D962CAD3DAD4EAD22
:1018C0005FAD2D9729966CAD7DAD8EAD9FAD2997FF
:1018D0000E9480119B01AC0160939F027093A00253
:1018E0008093A1029093A202C301B2010E94211031
:1018F00060939B0270939C0280939D0290939E0242
:101900002091050230910602409107025091080291
:10191000C501B4010E948011A70196010E94211007
:101920006B017C0160939302709394028093950203
:101930009093960265962CAD3DAD4EAD5FAD65972B
:1019400029966CAD7DAD8EAD9FAD29970E9480111B
:101950009B01AC0160938F0270939002809391027F
:1019600090939202C701B6010E94211060938B02EE
:1019700070938C0280938D0290938E02109241029C
:1019800010924202109243021092440210923902C5
:1019900010923A0210923B0210923C0210923102D5
:1019A00010923202109233021092340210922902E5
:1019B00010922A0210922B0210922C021092150201
:1019C00010921602109217021092180210920D0235
:1019D00010920E0210920F02109210021092050245
:1019E00010920602109207021092080283E791E01B
:1019F0000E9446036091BB027091BC028091BD02BF
:101A00009091BE020E9448038DE791E00E94460338
:101A10006091B7027091B8028091B9029091BA02B8
:101A20000E9457038AE891E00E9446036091B30246
:101A30007091B4028091B5029091B6020E94570352
:101A400085E991E00E9446036091AF027091B00277
:101A50008091B1029091B2020E9457038DE991E00A
:101A60000E9446036091AB027091AC028091AD027E
:101A70009091AE020E94480385EA91E00E944603DD
:101A80006091A7027091A8028091A9029091AA0288
:101A90000E94570382EB91E00E9446036091A302EB
:101AA0007091A4028091A5029091A6020E94570312
:101AB0008DEB91E00E94460360919F027091A0021D
:101AC0008091A1029091A2020E94570385EC91E0BF
:101AD0000E94460360919B0270919C0280919D023E
:101AE00090919E020E9448038DEC91E00E94460373
:101AF00060919702709198028091990290919A0258
:101B00000E9457038AED91E00E9446036091930280
:101B10007091940280919502909196020E945703D1
:101B200085EE91E00E94460360918F0270919002D1
:101B300080919102909192020E9457038DEE91E064
:101B40000E94460360918B0270918C0280918D02FD
:101B500090918E020E94480389E391E00E94140252
:101B600064E670E080E090E00E9428056091B30296
:101B70007091B4028091B5029091B6020E949310C8
:101B800070938402609383026091A3027091A40217
:101B90008091A5029091A6020E94931070938602F4
:101BA00060938502609193027091940280919502F6
:101BB000909196020E94931070938802609387021E
:101BC0006091BB027091BC028091BD029091BE02F7
:101BD0000E94931070938A0260938902809182021E
:101BE000811108C00E946205693873418105910521
:101BF00008F098C080918202882309F490C08DE09B
:101C000092E80E94C10384E080930A039BE0E92EDE
:101C1000F12C15E004E080910A03853009F086C0BC
:101C200080910903811182C080E090E00E94C1038D
:101C300090FD7CC08DE092E80E94C10384E0809317
:101C40000A0388E08093C302E3E8F2E0A4ECB2E088
:101C500001900D928A95E1F7809181028F718093B6
:101C6000C202E0917F02F0918002309711F081E092
:101C700009952FEF3FEF3093C0022093BF02809170
:101C8000BF029091C002609108030E94C603909326
:101C9000C0028093BF0286E080930A038DE392E83E
:101CA0000E94A80310910A03143061F083B7817F6A
:101CB0008C6083BF83B7816083BF889583B78E7F35
:101CC00083BFF0CF80E095EE0E94C10385E092E8EB
:101CD0000E94C10310930A0361E089E00E94A504F9
:101CE00062E070E080E090E00E94280560E089E01A
:101CF0000E94A50468EE73E080E090E00E94280551
:101D0000A89568EE73E080E090E00E942805A89511
:101D100068EE73E080E090E00E942805A8950E949C
:101D20007901C3C881E08093820264CF31E0E31A75
:101D3000F10809F486CF80910A03853089F58091F6
:101D4000C3022091090390E0049630E082179307C4
:101D500024F080910903873418F100930A038091DD
:101D6000BF029091C0029093C0028093BF02809105
:101D7000C302833430F081E090E09093C0028093FE
:101D8000BF028091C20286FF2FC080918102982FEE
:101D90009F719F3149F19091C20289278F7121F182
:101DA00080910A03843009F036CF1092C30210925A
:101DB0000903EFEFFFEFF093C002E093BF026091E1
:101DC0000803662351F08091BF029091C0020E94E7
:101DD000C6039093C0028093BF0210930A038DED57
:101DE00092E80E94A80317CF8091BF029091C00291
:101DF000892B69F4AE96AEADBFADAE97AB2B39F083
:101E000080E0AE96EEADFFADAE97099504CF2FEF13
:101E10003FEFA90120937B0230937C0240937D0227
:101E200050937E02F8CEEBE0F3E01382128288EE4C
:101E300093E0A0E0B0E084839583A683B78388E035
:101E400091E09183808385EC90E09587848784EC92
:101E500090E09787868780EC90E0918B808B81EC77
:101E600090E0938B828B82EC90E0958B848B86EC58
:101E700090E0978B868B118E128E138E148E0895A0
:101E800097FB072E16F4009407D077FD09D00E9427
:101E9000950F07FC05D03EF4909581959F4F0895CE
:101EA000709561957F4F0895A1E21A2EAA1BBB1B66
:101EB000FD010DC0AA1FBB1FEE1FFF1FA217B30716
:101EC000E407F50720F0A21BB30BE40BF50B661F2C
:101ED000771F881F991F1A9469F7609570958095F0
:101EE00090959B01AC01BD01CF010895052E97FB94
:101EF0001EF400940E948D0F57FD07D00E94540FCE
:101F000007FC03D04EF40C948D0F509540953095FE
:101F100021953F4F4F4F5F4F089590958095709555
:101F200061957F4F8F4F9F4F0895AA1BBB1B51E1B7
:101F300007C0AA1FBB1FA617B70710F0A61BB70B39
:101F4000881F991F5A95A9F780959095BC01CD01DE
:101F50000895EE0FFF1F0590F491E02D099450585D
:101F6000BB27AA270E94C70F0C9441110E9433116E
:101F700038F00E943A1120F039F49F3F19F426F40A
:101F80000C9430110EF4E095E7FB0C942A11E92F24
:101F90000E94521158F3BA17620773078407950716
:101FA00020F079F4A6F50C9474110EF4E0950B2E44
:101FB000BA2FA02D0B01B90190010C01CA01A0019B
:101FC0001124FF27591B99F0593F50F4503E68F1F6
:101FD0001A16F040A22F232F342F4427585FF3CF37
:101FE000469537952795A795F0405395C9F77EF408
:101FF0001F16BA0B620B730B840BBAF09150A1F051
:10200000FF0FBB1F661F771F881FC2F70EC0BA0FD6
:10201000621F731F841F48F4879577956795B7955E
:10202000F7959E3F08F0B0CF9395880F08F0992759
:10203000EE0F9795879508950E94061108F481E0A8
:1020400008950E9435100C9441110E943A1158F0E5
:102050000E94331140F029F45F3F29F00C942A11BB
:1020600051110C9475110C9430110E94521168F3A7
:102070009923B1F3552391F3951B550BBB27AA2741
:1020800062177307840738F09F5F5F4F220F331F7B
:10209000441FAA1FA9F335D00E2E3AF0E0E832D043
:1020A00091505040E695001CCAF72BD0FE2F29D046
:1020B000660F771F881FBB1F261737074807AB0718
:1020C000B0E809F0BB0B802DBF01FF2793585F4F8D
:1020D0003AF09E3F510578F00C942A110C9475113A
:1020E0005F3FE4F3983ED4F3869577956795B7956F
:1020F000F7959F5FC9F7880F911D9695879597F97A
:102100000895E1E0660F771F881FBB1F62177307F2
:102110008407BA0720F0621B730B840BBA0BEE1F07
:1021200088F7E09508950E949A106894B1110C9474
:10213000751108950E945A1188F09F5798F0B92F91
:102140009927B751B0F0E1F0660F771F881F991FEC
:102150001AF0BA95C9F714C0B13091F00E94741109
:10216000B1E008950C947411672F782F8827B85F19
:1021700039F0B93FCCF3869577956795B395D9F744
:102180003EF490958095709561957F4F8F4F9F4F4E
:102190000895E89409C097FB3EF49095809570955A
:1021A00061957F4F8F4F9F4F9923A9F0F92F96E9A3
:1021B000BB279395F695879577956795B795F11118
:1021C000F8CFFAF4BB0F11F460FF1BC06F5F7F4FB5
:1021D0008F4F9F4F16C0882311F096E911C07723C7
:1021E00021F09EE8872F762F05C0662371F096E8D0
:1021F000862F70E060E02AF09A95660F771F881F9F
:10220000DAF7880F9695879597F90895990F000842
:10221000550FAA0BE0E8FEEF16161706E807F907B8
:10222000C0F012161306E407F50798F0621B730B53
:10223000840B950B39F40A2661F0232B242B252BD4
:1022400021F408950A2609F4A140A6958FEF811D77
:10225000811D089597F99F6780E870E060E0089518
:102260009FEF80EC089500240A94161617061806AE
:102270000906089500240A9412161306140605068A
:102280000895092E0394000C11F4882352F0BB0F1B
:1022900040F4BF2B11F460FF04C06F5F7F4F8F4F7E
:1022A0009F4F089557FD9058440F551F59F05F3FB9
:1022B00071F04795880F97FB991F61F09F3F79F068
:1022C00087950895121613061406551FF2CF4695EA
:1022D000F1DF08C0161617061806991FF1CF86956C
:1022E0007105610508940895E894BB276627772750
:1022F000CB0197F908950E94061108F48FEF089515
:102300000E9493110C9441110E94331138F00E94E5
:102310003A1120F0952311F00C942A110C943011ED
:1023200011240C9475110E94521170F3959FC1F302
:10233000950F50E0551F629FF001729FBB27F00D73
:10234000B11D639FAA27F00DB11DAA1F649F6627C8
:10235000B00DA11D661F829F2227B00DA11D621F17
:10236000739FB00DA11D621F839FA00D611D221FD1
:10237000749F3327A00D611D231F849F600D211DB5
:10238000822F762F6A2F11249F5750409AF0F1F038
:1023900088234AF0EE0FFF1FBB1F661F771F881FA1
:1023A00091505040A9F79E3F510580F00C942A119E
:1023B0000C9475115F3FE4F3983ED4F386957795BE
:1023C0006795B795F795E7959F5FC1F7FE2B880F47
:1023D000911D9695879597F9089519F416F40C9424
:1023E00030110C9438120E945A11B8F39923C9F392
:1023F000B6F39F57550B87FF0E9446120024A0E6B4
:1024000040EA900180585695979528F4805C660FB5
:10241000771F881F20F026173707480730F4621B04
:10242000730B840B202931294A2BA6951794079406
:10243000202531254A2758F7660F771F881F20F07F
:1024400026173707480730F4620B730B840B200DF7
:10245000311D411DA09581F7B901842F9158880F36
:102460009695879508950E940611880B990B0895FB
:102470009F3F31F0915020F4879577956795B795F8
:10248000880F911D9695879597F908959150504022
:10249000660F771F881FD2F7089581E090E0F894C7
:0824A0000C945212F894FFCFD6
:1024A800EE01EE010000000010018C00D900B70019
:1024B800CB005701656D6F6E545820435431323349
:1024C80020566F6C746167652033205068617365AE
:1024D800206578616D706C65000D0A004F70656E3F
:1024E800456E657267794D6F6E69746F722E6F7283
:1024F80067004E6F64653A200020467265713A2085
:10250800003836384D687A00204E6574776F726BE4
:102518003A2000566F6C746167653A200020437555
:102528007272656E7420313A200020506F776572A0
:1025380020313A200020564120313A2000205046D0
:1025480020313A20002043757272656E7420323A49
:10255800200020506F77657220323A2000205641C3
:1025680020323A200020504620323A20002043757D
:102578007272656E7420333A200020506F7765724E
:1025880020333A200020564120333A20002050467C
:1025980020333A20006E616E00696E66006F7666C1
:0225A800000031
:00000001FF
