:100000000C9470000C94EC020C94C5020C949800B3
:100010000C9498000C9498000C94EB010C949800AC
:100020000C9498000C9498000C9498000C949800F0
:100030000C9498000C9498000C9498000C949800E0
:100040000C9430070C9498000C94B9010C94930113
:100050000C9498000C9498000C9498000C949800C0
:100060000C9498000C949800010402000302048A86
:10007000050506C30B2019421E2C25802E902FAAA1
:10008000302D370038003C8F3D106F2000000000FD
:1000900000240027002A0000000000250028002B73
:1000A0000004040404040404040202020202020321
:1000B000030303030301020408102040800102042B
:1000C00008102001020408102000000008000201AE
:1000D0000000030407000000000000000000C50B42
:1000E00011241FBECFEFD8E0DEBFCDBF11E0A0E0EE
:1000F000B1E0ECEBFDE102C005900D92A837B1072D
:10010000D9F723E0A8E7B1E001C01D92AF3DB207E7
:10011000E1F710E0C0E7D0E004C02197FE010E94A3
:10012000330CCF36D107C9F70E947A070C94DC0E46
:100130000C940000CF92DF92EF92FF920F931F93E7
:10014000CF93DF936C017A018B01C0E0D0E0CE1534
:10015000DF0589F0D8016D918D01D601ED91FC91FB
:100160000190F081E02DC6010995892B11F47E01E3
:1001700002C02196ECCFC701DF91CF911F910F9163
:10018000FF90EF90DF90CF900895FC01918D828DCC
:10019000981761F0828DDF01A80FB11D5D968C91DB
:1001A000928D9F5F9F73928F90E008958FEF9FEFE6
:1001B0000895FC01918D828D981731F0828DE80FA2
:1001C000F11D858D90E008958FEF9FEF0895FC015C
:1001D000918D228D892F90E0805C9F4F821B910929
:1001E0008F739927089588E393E00E94E70021E048
:1001F000892B09F420E0822F0895FC01848DDF0112
:10020000A80FB11DA35ABF4F2C91848D90E0019689
:100210008F739927848FA689B7892C93A089B18978
:100220008C9180648C93938D848D981306C0028882
:10023000F389E02D80818F7D80830895EF92FF9276
:100240000F931F93CF93DF93EC0181E0888F9B8DF9
:100250008C8D981305C0E889F989808185FD24C0BB
:10026000F62E0B8D10E00F5F1F4F0F731127E02E3E
:100270008C8DE8120CC00FB607FCFACFE889F9891B
:10028000808185FFF5CFCE010E94FD00F1CF8B8DDF
:10029000FE01E80FF11DE35AFF4FF0820B8FEA8950
:1002A000FB898081806207C0EE89FF896083E889CD
:1002B000F98980818064808381E090E0DF91CF9133
:1002C0001F910F91FF90EF900895CF93DF93EC0172
:1002D000888D8823C9F0EA89FB89808185FD05C066
:1002E000A889B9898C9186FD0FC00FB607FCF5CFA0
:1002F000808185FFF2CFA889B9898C9185FFEDCFE8
:10030000CE010E94FD00E7CFDF91CF91089580E0FC
:1003100090E0892B29F00E94F30081110C940000D9
:1003200008950E94D70E1F920F920FB60F921124BC
:100330002F933F934F935F936F937F938F939F93ED
:10034000AF93BF93EF93FF9388E393E00E94FD0088
:10035000FF91EF91BF91AF919F918F917F916F919D
:100360005F914F913F912F910F900FBE0F901F9073
:1003700018951F920F920FB60F9211242F938F93FF
:100380009F93EF93FF93E0914803F091490380819D
:10039000E0914E03F0914F0382FD12C09081809155
:1003A00051038F5F8F7320915203821751F0E091B8
:1003B0005103F0E0E85CFC4F958F8093510301C03E
:1003C0008081FF91EF919F918F912F910F900FBEA0
:1003D0000F901F9018951F920F920FB60F92112435
:1003E0008F938091C3018F5F8093C3018F910F9092
:1003F0000FBE0F901F9018958E3008F08E508770AA
:10040000806480937C0080917A00806480937A007D
:1004100080917A0086FDFCCF809178002091790050
:1004200090E0922B089508953FB7F8948091DA03F5
:100430009091DB03A091DC03B091DD0326B5A89B6E
:1004400005C02F3F19F00196A11DB11D3FBFBA2F66
:10045000A92F982F8827820F911DA11DB11DBC01C6
:10046000CD0142E0660F771F881F991F4A95D1F78B
:100470000895009769F0FC0101900020E9F7319799
:10048000AF01481B590BBC0188E393E00C949A0020
:1004900080E090E008958F929F92AF92BF920F9369
:1004A0001F93CF93DF93CDB7DEB7A1970FB6F89424
:1004B000DEBF0FBECDBF19A2423008F44AE08E0164
:1004C0000F5D1F4F842E912CA12CB12CA5019401FE
:1004D0000E94F20BE62FB901CA0101501109EA305E
:1004E00014F4E05D01C0E95CD801EC93232B242BCC
:1004F000252B61F7C8010E943902A1960FB6F89426
:10050000DEBF0FBECDBFDF91CF911F910F91BF9086
:10051000AF909F908F900895E0913803F091390348
:100520000190F081E02D682F88E393E00994CF9249
:10053000DF92EF92FF92CF93DF936C01990FEE0859
:10054000FF08F7FE17C08DE20E948C02EC016627BF
:100550007727CB016C197D098E099F094AE00E941B
:100560004B028C0F9D1FDF91CF91FF90EF90DF909A
:10057000CF9008954AE0C701B601DF91CF91FF9077
:10058000EF90DF90CF900C944B021F920F920FB61A
:100590000F9211242F933F934F935F936F937F9309
:1005A0008F939F93AF93BF93EF93FF93E0910201DB
:1005B000F09103010995FF91EF91BF91AF919F9148
:1005C0008F917F916F915F914F913F912F910F90FC
:1005D0000FBE0F901F9018951F920F920FB60F929B
:1005E00011242F933F934F935F936F937F938F9338
:1005F0009F93AF93BF93EF93FF93E0910001F0912E
:1006000001010995FF91EF91BF91AF919F918F915A
:100610007F916F915F914F913F912F910F900FBEFE
:100620000F901F901895E8982A988EBD0DB407FE7C
:10063000FDCF8EB56EBD0DB407FEFDCF8EB52A9AE7
:10064000E89A089560E00C941303CF93C82F81E0DB
:100650000E942203837E682F6C2B81E8CF910C943B
:10066000130388E20E942203807521F080E00E943B
:100670002203F7CF08958627682F62956827062EF4
:10068000669566956025062E669560256770082E2E
:10069000892F669507946795902D86270694679510
:1006A000902586270895CF9380913703853009F0F0
:1006B00054C060E485EA0E94130384E20E9422038E
:1006C0008093DE037894C8E488E20E942203807558
:1006D000D9F38091360381110FC0E0913403F0917A
:1006E00035038091360391E0980F909336039091F3
:1006F0003303E80FF11D908380E00E942203E09114
:100700003403F09135039091360321E0290F2093B3
:100710003603E90FF11D8083682F8091310390919A
:1007200032030E943B039093320380933103809104
:10073000EB02833410F0C09336038091EB022091DA
:10074000360390E0049630E082179307ACF0809176
:100750003603883408F4B8CF0FC088E20E94220321
:1007600083FF0AC084E0809337030E94250360E87A
:1007700085EACF910C941303CF91089590E0FC018A
:10078000E753FF4F3491FC01EB54FF4F2491FC01E0
:10079000EF55FF4FE491EE2309F43BC0332339F1C9
:1007A000333091F038F43130A9F0323001F584B5AE
:1007B0008F7D12C0373091F03830A1F03430B9F469
:1007C000809180008F7D03C0809180008F7780931F
:1007D00080000DC084B58F7784BD09C08091B000C2
:1007E0008F7703C08091B0008F7D8093B000F0E0E0
:1007F000EE0FFF1FE956FF4FA591B4918FB7F89404
:10080000EC91611103C020952E2301C02E2B2C9357
:100810008FBF08958F929F92AF92BF92CF92DF9237
:10082000EF92FF926B017C010E9414024B015C016C
:10083000C114D104E104F104F1F00E941402DC01BE
:10084000CB0188199909AA09BB09883E9340A105E3
:10085000B10570F321E0C21AD108E108F10888EE71
:10086000880E83E0981EA11CB11CC114D104E104C0
:10087000F10419F7DDCFFF90EF90DF90CF90BF909C
:10088000AF909F908F9008952FB7F8946091D60302
:100890007091D7038091D8039091D9032FBF089509
:1008A0002F923F924F925F926F927F928F929F9280
:1008B000AF92BF92CF92DF92EF92FF920F931F936E
:1008C000CF93DF93CDB7DEB7A2970FB6F894DEBF14
:1008D0000FBECDBF9AA389A38EE480937C0062E013
:1008E00070E080E090E00E940A0480917A008064C9
:1008F00080937A0080917A0086FDFCCF8091780009
:100900002091790030E0322F2227A901330F660BA6
:10091000770B9A01AB01282B60E070E381E190E056
:100920000E94140C2D8B3E8B4F8B588F0E944404D9
:100930004B015C0169A07AA028E5620E711CA9A197
:10094000BAA154968C910E94FC01F301918380839B
:10095000BC01990F880B990B0E94550D6B017C010E
:100960002DEC3CEC4CE054E40E94A60C87FF0BC03D
:1009700011E026E636E646EE53E4C701B6010E94D2
:10098000050E18160CF010E00E944404DC01CB01A7
:1009900088199909AA09BB09813D9740A105B105AC
:1009A00010F4112361F20E944404698B7A8B8B8BC3
:1009B0009C8B00E010E01A82198229A13AA1205CE8
:1009C0003F4F3A8F298F49A15AA14C5B5F4F5C87FB
:1009D0004B8789A19AA1885B9F4F9C8F8B8FA9A180
:1009E000BAA1A45BBF4FBE87AD87E9A1FAA1E05BC6
:1009F000FF4FFE8FED8F29A13AA12C5A3F4F388B24
:100A00002F8749A15AA1465A5F4F5E834D8329A083
:100A10003AA05BE5250E311C89A19AA1885A9F4F07
:100A200098A38F8F0E944404DC01CB0129893A8965
:100A30004B895C89821B930BA40BB50B803D9740BF
:100A4000A105B10508F4DAC04D895E89BA01550FD8
:100A5000880B990B0E94550D20E030E04AE754E4E2
:100A60000E94AB0C20E030E040E85AE30E940A0EFE
:100A70002B013C01A9A1BAA158962D913D914D9110
:100A80005C915B970E940A0E4B015C01E981FA813F
:100A9000BF0180E090E00E94530D6B017C0129A012
:100AA0003AA0F4E42F0E311C9B01AC01D1016D91F1
:100AB0007D918D919C910E94AB0C0E947D0E9B01BB
:100AC000AC01C501B4010E940A0E69837A838B834D
:100AD0009C83E9A1FAA16487758786879787248D0F
:100AE000358D468D578DC301B2010E940A0E2B0130
:100AF0003C0109A11AA1045B1F4FA7019601D8016F
:100B00006D917D918D919C910E94AB0C0E947D0E08
:100B10009B01AC01C301B2010E940A0E6D837E836A
:100B20008F839887E9A1FAA1608B718B828B938B5D
:100B3000A3019201C501B4010E940A0EA9A0BAA0A6
:100B4000F4E5AF0EB11CD5012D913D914D915C9115
:100B50000E940A0EA70196010E94AB0C6B017C015A
:100B6000E9A1FAA160837183828393832D813E8101
:100B70004F81588569817A818B819C810E940A0E00
:100B80009B01AC01A9A1BAA114966D937D938D939D
:100B90009C931797C701B6010E94AB0CE9A1FAA17B
:100BA0006087718782879387D1011D921D921D9264
:100BB0001C921397F8011082118212821382D501C0
:100BC0001D921D921D921C921397A2960FB6F89437
:100BD000DEBF0FBECDBFDF91CF911F910F91FF9070
:100BE000EF90DF90CF90BF90AF909F908F907F90CD
:100BF0006F905F904F903F902F900895E981FA8118
:100C00003196FA83E983E9A1FAA184A595A5A6A561
:100C1000B7A580A791A7A2A7B3A784890E94FC01CA
:100C2000A9A1BAA195969C938E93949756968C9170
:100C30000E94FC013C01E9A1FAA197A386A324A18B
:100C400035A13A872987B901330F880B990B0E9488
:100C5000550D6B017C01A9A1BAA1D4968D909D90F0
:100C6000AD90BC90D797A50194010E94390C20E06B
:100C700030E040E85AE30E940A0E9B01AC01C50136
:100C8000B4010E943A0C9B01AC01E9A1FAA164AB4A
:100C900075AB86AB97ABC701B6010E94390C4B010F
:100CA0005C01A9A1BAA19C966D937D938D939C93B1
:100CB0009F97B301770C880B990B0E94550D6B0120
:100CC0007C01E9A1FAA140AC51AC62AC73ACA301C8
:100CD00092010E94390C20E030E040E85AE30E9483
:100CE0000A0E9B01AC01C301B2010E943A0C9B01A8
:100CF000AC01A9A1BAA1D8966D937D938D939C93D5
:100D0000DB97C701B6010E94390C6B017C01E9A198
:100D1000FAA160AB71AB82AB93ABA5019401C501A5
:100D2000B4010E940A0E9B01AC01A98DBA8D6D938E
:100D30007D938D939C931397EB85FC8560817181E6
:100D4000828193810E943A0CAB85BC856D937D9323
:100D50008D939C931397A7019601C701B6010E943A
:100D60000A0E9B01AC01EB8DFC8D60837183828345
:100D70009383AD85BE856D917D918D919C910E94EF
:100D80003A0CED85FE856083718382839383A9A1EC
:100D9000BAA198964D905D906D907C909B97A30121
:100DA0009201C501B4010E94390CE9A1FAA120A168
:100DB00031A142A153A10E940A0E9B01AC01C301C3
:100DC000B2010E943A0CA9A1BAA1DC966D937D9361
:100DD0008D939C93DF97A70196010E940A0E9B01B9
:100DE000AC01ED8DFE8D6083718382839383AF852B
:100DF000B8896D917D918D919C910E943A0CEF85FF
:100E0000F8896083718382839383D1018C91ED8112
:100E1000FE818083AF8DB8A18D919C91E985FA8583
:100E20008E179F0724F4E1E0D101EC9302C0D101B9
:100E30001C92E981FA81319729F4D1018C91ED81DD
:100E4000FE818083AD81BE819C91F10180819817E4
:100E500011F00F5F1F4F0431110508F0F5CDE2CD01
:100E60001F920F920FB60F9211242F933F938F93DF
:100E70009F93AF93BF938091D6039091D703A09196
:100E8000D803B091D9033091D50323E0230F2D3738
:100E900020F40196A11DB11D05C026E8230F02967E
:100EA000A11DB11D2093D5038093D6039093D70342
:100EB000A093D803B093D9038091DA039091DB0318
:100EC000A091DC03B091DD030196A11DB11D8093BB
:100ED000DA039093DB03A093DC03B093DD03BF91AF
:100EE000AF919F918F913F912F910F900FBE0F90D7
:100EF0001F901895789484B5826084BD84B5816014
:100F000084BD85B5826085BD85B5816085BD8091D4
:100F10006E00816080936E0010928100809181004C
:100F20008260809381008091810081608093810044
:100F3000809180008160809380008091B100846006
:100F40008093B1008091B00081608093B000809167
:100F50007A00846080937A0080917A008260809326
:100F60007A0080917A00816080937A0080917A0083
:100F7000806880937A001092C100E0914803F0915C
:100F8000490382E08083E0914403F091450310829D
:100F9000E0914603F09147038FEC80831092500359
:100FA000E0914C03F0914D0386E08083E0914A0389
:100FB000F0914B03808180618083E0914A03F0913E
:100FC0004B03808188608083E0914A03F0914B035A
:100FD000808180688083E0914A03F0914B03808197
:100FE0008F7D808384E191E00E94390281E391E06A
:100FF0000E94390284E391E00E94390281E391E08A
:101000000E9439028AE491E00E9439028AE090E06D
:101010000E94970281E591E00E94390289E591E002
:101020000E94390280E691E00E9439024AE062EDB6
:1010300070E080E090E00E944B0281E391E00E942A
:101040003902E2E0F0E0F093A202E093A10283E330
:1010500093E3ACE6B3E48093A5029093A602A09339
:10106000A702B093A8020AE919E929ED3FE300932A
:10107000AD021093AE022093AF023093B00280E035
:1010800090E0A0E0B4E48093C1029093C202A093E8
:10109000C302B093C40243E050E05093A4024093D3
:1010A000A30243E353E36EED72E44093A90250932D
:1010B000AA026093AB027093AC028093C502909336
:1010C000C602A093C702B093C802F0933E02E09319
:1010D0003D02CFE8CC2EC2E4DC2ECAE6EC2EC3E4FF
:1010E000FC2EC0924102D0924202E0924302F09262
:1010F00044020093490210934A0220934B0230931A
:101100004C0280935D0290935E02A0935F02B093C5
:1011100060021092400210923F02409345025093A9
:101120004602609347027093480280936102909355
:101130006202A0936302B0936402F093E201E09331
:10114000E101C092E501D092E601E092E701F09260
:10115000E8010093ED011093EE012093EF0130932D
:10116000F0018093010290930202A0930302B093D6
:10117000040221E030E03093E4012093E301409346
:10118000E9015093EA016093EB017093EC018093C5
:10119000050290930602A0930702B093080280E034
:1011A00090E8ACE6B0E08093C4019093C501A093B1
:1011B000C601B093C70182ED809333038AE0809328
:1011C000CB0164E170E080E090E00E940A0483E5D6
:1011D00093E0909301018093000180916900836006
:1011E00080936900E89A2A9A229A2A9A84B18C629A
:1011F00084B980E58CBD8DB581608DBD6AEA8FEACA
:101200000E9413038FE20E9422038A3AB9F765E530
:101210008FEA0E9413038FE20E9422038535B9F7FB
:10122000C8E6D0E0FE018491882339F031966491BC
:1012300080680E9413032296F5CF6091330381EBFF
:101240000E941303C090C401D090C501E090C60174
:10125000F090C701B7018827992787E80E941303F8
:1012600099278F2D7E2D6D2D88E80E9413036C2DFC
:1012700089E80E941303C4E0C09337038AE0809397
:10128000C80180E00E942503C0933703EEEBF0E035
:101290002491EAEAF0E08491882399F090E0880FA5
:1012A000991FFC01E357FF4FA591B491FC01E9564A
:1012B000FF4F859194918FB7F894EC91E22BEC93CA
:1012C0008FBF61E089E00E94BE0399E288E10FB61A
:1012D000F894A895809360000FBE90936000C9EECB
:1012E000D2E005E08DE892E00E94500460918D020A
:1012F00070918E0280918F02909190020E941D0D3C
:101300007093860260938502CB010E94970220E0D1
:1013100030E048EC52E46091990270919A02809119
:101320009B0290919C020E940A0E0E941D0D7093D8
:101330008C0260938B0289E292E00E9450046091DB
:10134000290270912A0280912B0290912C020E9416
:101350001D0D70938802609387028FE491E00E94D4
:10136000390280918702909188020E9497028DEC49
:1013700091E00E9450046091CD017091CE01809166
:10138000CF019091D0010E941D0D70938A0260934D
:1013900089028FE491E00E94390280918902909144
:1013A0008A020E9497028FE491E00E943902C09065
:1013B0009902D0909A02E0909B02F0909C02A701C3
:1013C0009601C701B6010E94BD0E882319F08BE675
:1013D00091E01AC046015701E894B7F82FEF3FEFAC
:1013E0004FE75FE7C501B4010E94BD0E81110FC038
:1013F0002FEF3FEF4FE75FE7C501B4010E94A60C56
:1014000018162CF48FE691E00E94390272C02FEF7B
:101410003FEF4FE75FE4C701B6010E94050E1816C3
:101420001CF483E791E0F0CF2FEF3FEF4FE75FEC45
:10143000C701B6010E94A60C87FDF3CF20E030E083
:10144000A901C701B6010E94A60C87FF07C08DE263
:101450000E948C02F7FAF094F7F8F0942AE037ED46
:1014600043EA5BE3C701B6010E943A0C4B015C0101
:101470000E94240D6B017C010E94530D9B01AC0165
:10148000C501B4010E94390C4B015C014AE0C7015F
:10149000B6010E944B028EE20E948C0220E030E0F6
:1014A00040E251E4C501B4010E940A0E4B015C0107
:1014B0000E94240D6B01E12CF12C4AE0C701B6011A
:1014C0000E944B02C701B6010E94530D9B01AC0163
:1014D000C501B4010E94390C20E030E040E251E443
:1014E0000E940A0E0E94240D80E090E04AE00E94D3
:1014F0004B0281E391E00E94390264E670E080E0F3
:1015000090E00E940A048091CC01811108C00E94E1
:101510004404693873418105910508F02CC180911C
:10152000CC01882309F424C184E00E94250384E0CF
:10153000809337039BE0E92EF12C14E08091370370
:10154000853029F480913603882309F46EC021E0A8
:10155000E21AF10809F46EC080913703843019F063
:10156000853019F130C01092EB0210923603609171
:1015700033038FEF9FEF0E943B03909332038093DE
:101580003103D0933503C0933403009337030E9493
:10159000310360E885EA0E94130380E10E9425037D
:1015A00062E08EE90E9413030EC08091EB0220914D
:1015B000360390E0049630E0821793073CF0809168
:1015C0003603883418F48FEF9FEF26C0109337034B
:1015D00084E00E9425038091EB02833408F0CFC0A1
:1015E0008091310390913203892B09F0C8C080911A
:1015F000EA0286FFC7C03091CB013F3109F4C2C077
:101600002091EA022F7181E090E0231302C080E074
:1016100090E09195819591099093CA018093C901B9
:101620008091C9019091CA0189CF84E080933703EA
:101630000E94250388E08093EB02E5E8F2E080E079
:1016400090E0DC01A451BD4F21912C93019688308C
:101650009105B9F78091CB018093EA026091330341
:101660008FEF9FEF0E943B039093320380933103EF
:101670009091EB028EEF891B809337030E94310318
:101680008CE00E94250360E085EA0E9413038091AC
:1016900037038330DCF588E20E94220387FDF7CF11
:1016A0008091370387FF1BC09091EB028091370335
:1016B000E0913403F0913503E90FF11DE80FF11DBE
:1016C00087FDFA951381612F809131039091320348
:1016D0000E943B0390933203809331030DC08091AD
:1016E0003703882329F0813031F41091320304C08C
:1016F0001091310301C01AEA612F80E80E941303A0
:10170000809137038F5F80933703C1CF8091370378
:10171000843064F483B7817F8C6083BF83B781603A
:1017200083BF889583B78E7F83BFF0CF80E00E9410
:10173000250384E08093370361E089E00E94BE03C3
:1017400062E070E080E090E00E940A0460E089E0DE
:101750000E94BE0385E0E82EF12C68EE73E080E085
:1017600090E00E940A04A89581E0E81AF108A9F720
:101770000E948701B7CD81E08093CC01D0CE81E07B
:1017800090E04ACF80E090E047CFE8E3F3E01382B7
:10179000128288EE93E0A0E0B0E084839583A68374
:1017A000B78388E091E09183808385EC90E0958712
:1017B000848784EC90E09787868780EC90E0918B1B
:1017C000808B81EC90E0938B828B82EC90E0958B08
:1017D000848B86EC90E0978B868B118E128E138E05
:1017E000148E0895A1E21A2EAA1BBB1BFD010DC089
:1017F000AA1FBB1FEE1FFF1FA217B307E407F507C1
:1018000020F0A21BB30BE40BF50B661F771F881F9C
:10181000991F1A9469F760957095809590959B0132
:10182000AC01BD01CF010895052E97FB1EF4009475
:101830000E942B0C57FD07D00E94F20B07FC03D02F
:101840004EF40C942B0C50954095309521953F4FBC
:101850004F4F5F4F089590958095709561957F4F9C
:101860008F4F9F4F0895EE0FFF1F0590F491E02DCD
:1018700009945058BB27AA270E94510C0C94CB0DF9
:101880000E94BD0D38F00E94C40D20F039F49F3F36
:1018900019F426F40C94BA0D0EF4E095E7FB0C94C1
:1018A000B40DE92F0E94DC0D58F3BA1762077307D5
:1018B0008407950720F079F4A6F50C94FE0D0EF43C
:1018C000E0950B2EBA2FA02D0B01B90190010C0150
:1018D000CA01A0011124FF27591B99F0593F50F468
:1018E000503E68F11A16F040A22F232F342F4427C0
:1018F000585FF3CF469537952795A795F0405395B8
:10190000C9F77EF41F16BA0B620B730B840BBAF087
:101910009150A1F0FF0FBB1F661F771F881FC2F7F2
:101920000EC0BA0F621F731F841F48F48795779506
:101930006795B795F7959E3F08F0B0CF9395880FC0
:1019400008F09927EE0F9795879508950E94900DBE
:1019500008F481E008950E94BF0C0C94CB0D0E9406
:10196000C40D58F00E94BD0D40F029F45F3F29F0EE
:101970000C94B40D51110C94FF0D0C94BA0D0E94EF
:10198000DC0D68F39923B1F3552391F3951B550BA7
:10199000BB27AA2762177307840738F09F5F5F4F42
:1019A000220F331F441FAA1FA9F335D00E2E3AF081
:1019B000E0E832D091505040E695001CCAF72BD099
:1019C000FE2F29D0660F771F881FBB1F26173707EA
:1019D0004807AB07B0E809F0BB0B802DBF01FF271C
:1019E00093585F4F3AF09E3F510578F00C94B40D38
:1019F0000C94FF0D5F3FE4F3983ED4F38695779502
:101A00006795B795F7959F5FC9F7880F911D9695D4
:101A1000879597F90895E1E0660F771F881FBB1F30
:101A2000621773078407BA0720F0621B730B840BDD
:101A3000BA0BEE1F88F7E09508950E94240D689474
:101A4000B1110C94FF0D08950E94E40D88F09F578A
:101A500098F0B92F9927B751B0F0E1F0660F771FD2
:101A6000881F991F1AF0BA95C9F714C0B13091F0C8
:101A70000E94FE0DB1E008950C94FE0D672F782FA3
:101A80008827B85F39F0B93FCCF38695779567958D
:101A9000B395D9F73EF490958095709561957F4FF9
:101AA0008F4F9F4F0895E89409C097FB3EF490959F
:101AB0008095709561957F4F8F4F9F4F9923A9F027
:101AC000F92F96E9BB279395F695879577956795B6
:101AD000B795F111F8CFFAF4BB0F11F460FF1BC0FA
:101AE0006F5F7F4F8F4F9F4F16C0882311F096E98D
:101AF00011C0772321F09EE8872F762F05C066233B
:101B000071F096E8862F70E060E02AF09A95660FF3
:101B1000771F881FDAF7880F9695879597F90895AC
:101B2000990F0008550FAA0BE0E8FEEF16161706EE
:101B3000E807F907C0F012161306E407F50798F056
:101B4000621B730B840B950B39F40A2661F0232B6F
:101B5000242B252B21F408950A2609F4A140A695EB
:101B60008FEF811D811D089597F99F6780E870E0D0
:101B700060E008959FEF80EC089500240A94161603
:101B8000170618060906089500240A94121613066B
:101B9000140605060895092E0394000C11F48823F9
:101BA00052F0BB0F40F4BF2B11F460FF04C06F5F15
:101BB0007F4F8F4F9F4F089557FD9058440F551FEB
:101BC00059F05F3F71F04795880F97FB991F61F0BF
:101BD0009F3F79F087950895121613061406551F36
:101BE000F2CF4695F1DF08C0161617061806991FA2
:101BF000F1CF86957105610508940895E894BB2797
:101C000066277727CB0197F908950E94900D08F475
:101C10008FEF08950E941D0E0C94CB0D0E94BD0DF8
:101C200038F00E94C40D20F0952311F00C94B40DEF
:101C30000C94BA0D11240C94FF0D0E94DC0D70F36E
:101C4000959FC1F3950F50E0551F629FF001729F61
:101C5000BB27F00DB11D639FAA27F00DB11DAA1F70
:101C6000649F6627B00DA11D661F829F2227B00DBD
:101C7000A11D621F739FB00DA11D621F839FA00D48
:101C8000611D221F749F3327A00D611D231F849F98
:101C9000600D211D822F762F6A2F11249F575040EF
:101CA0009AF0F1F088234AF0EE0FFF1FBB1F661F6A
:101CB000771F881F91505040A9F79E3F510580F033
:101CC0000C94B40D0C94FF0D5F3FE4F3983ED4F3F5
:101CD000869577956795B795F795E7959F5FC1F7D7
:101CE000FE2B880F911D9695879597F9089519F405
:101CF00016F40C94BA0D0C94C20E0E94E40DB8F3C5
:101D00009923C9F3B6F39F57550B87FF0E94D00E56
:101D10000024A0E640EA900180585695979528F453
:101D2000805C660F771F881F20F02617370748074B
:101D300030F4621B730B840B202931294A2BA695A2
:101D400017940794202531254A2758F7660F771FE7
:101D5000881F20F026173707480730F4620B730BF3
:101D6000840B200D311D411DA09581F7B901842FF1
:101D70009158880F9695879508950E94900D880B2D
:101D8000990B08959F3F31F0915020F487957795F6
:101D90006795B795880F911D9695879597F9089542
:101DA00091505040660F771F881FD2F7089581E049
:0C1DB00090E0F8940C94DC0EF894FFCF47
:101DBC0013021302000000001E019A00E700C50088
:101DCC00D9006501656D6F6E545820435431323320
:101DDC0020566F6C74616765206578616D706C65F9
:101DEC00000D0A004F70656E456E657267794D6F18
:101DFC006E69746F722E6F7267004E6F64653A2055
:101E0C000020467265713A20003433334D687A00F5
:101E1C00204E6574776F726B3A20006E616E0069AC
:081E2C006E66006F766600008F
:00000001FF
